{
  "contractName": "CallOption",
  "abi": [
    {
      "inputs": [
        {
          "internalType": "address",
          "name": "_daiAddress",
          "type": "address"
        },
        {
          "internalType": "address payable",
          "name": "_tellorAddress",
          "type": "address"
        }
      ],
      "payable": false,
      "stateMutability": "nonpayable",
      "type": "constructor"
    },
    {
      "anonymous": false,
      "inputs": [
        {
          "indexed": false,
          "internalType": "address",
          "name": "_descriptorSet",
          "type": "address"
        }
      ],
      "name": "NewDescriptorSet",
      "type": "event"
    },
    {
      "constant": true,
      "inputs": [
        {
          "internalType": "address",
          "name": "",
          "type": "address"
        },
        {
          "internalType": "uint256",
          "name": "",
          "type": "uint256"
        }
      ],
      "name": "addressToOptions",
      "outputs": [
        {
          "internalType": "uint256",
          "name": "",
          "type": "uint256"
        }
      ],
      "payable": false,
      "stateMutability": "view",
      "type": "function"
    },
    {
      "constant": true,
      "inputs": [],
      "name": "daiInstance",
      "outputs": [
        {
          "internalType": "contract IERC20",
          "name": "",
          "type": "address"
        }
      ],
      "payable": false,
      "stateMutability": "view",
      "type": "function"
    },
    {
      "constant": true,
      "inputs": [
        {
          "internalType": "uint256",
          "name": "_requestId",
          "type": "uint256"
        }
      ],
      "name": "getCurrentValue",
      "outputs": [
        {
          "internalType": "bool",
          "name": "ifRetrieve",
          "type": "bool"
        },
        {
          "internalType": "uint256",
          "name": "value",
          "type": "uint256"
        },
        {
          "internalType": "uint256",
          "name": "_timestampRetrieved",
          "type": "uint256"
        }
      ],
      "payable": false,
      "stateMutability": "view",
      "type": "function"
    },
    {
      "constant": true,
      "inputs": [],
      "name": "getDaiRange",
      "outputs": [
        {
          "internalType": "uint256",
          "name": "",
          "type": "uint256"
        },
        {
          "internalType": "uint256",
          "name": "",
          "type": "uint256"
        }
      ],
      "payable": false,
      "stateMutability": "view",
      "type": "function"
    },
    {
      "constant": true,
      "inputs": [
        {
          "internalType": "uint256",
          "name": "_requestId",
          "type": "uint256"
        },
        {
          "internalType": "uint256",
          "name": "_timestamp",
          "type": "uint256"
        }
      ],
      "name": "getDataBefore",
      "outputs": [
        {
          "internalType": "bool",
          "name": "_ifRetrieve",
          "type": "bool"
        },
        {
          "internalType": "uint256",
          "name": "_value",
          "type": "uint256"
        },
        {
          "internalType": "uint256",
          "name": "_timestampRetrieved",
          "type": "uint256"
        }
      ],
      "payable": false,
      "stateMutability": "view",
      "type": "function"
    },
    {
      "constant": true,
      "inputs": [],
      "name": "getEthRange",
      "outputs": [
        {
          "internalType": "uint256",
          "name": "",
          "type": "uint256"
        },
        {
          "internalType": "uint256",
          "name": "",
          "type": "uint256"
        }
      ],
      "payable": false,
      "stateMutability": "view",
      "type": "function"
    },
    {
      "constant": true,
      "inputs": [],
      "name": "getMarketValue",
      "outputs": [
        {
          "internalType": "uint256",
          "name": "",
          "type": "uint256"
        }
      ],
      "payable": false,
      "stateMutability": "view",
      "type": "function"
    },
    {
      "constant": true,
      "inputs": [
        {
          "internalType": "uint256",
          "name": "",
          "type": "uint256"
        }
      ],
      "name": "idToOption",
      "outputs": [
        {
          "internalType": "bool",
          "name": "isAvailable",
          "type": "bool"
        },
        {
          "internalType": "bool",
          "name": "settled",
          "type": "bool"
        },
        {
          "internalType": "address",
          "name": "partyL",
          "type": "address"
        },
        {
          "internalType": "address",
          "name": "partyS",
          "type": "address"
        },
        {
          "internalType": "enum CallOption.POSITION",
          "name": "openPosition",
          "type": "uint8"
        },
        {
          "internalType": "uint256",
          "name": "id",
          "type": "uint256"
        },
        {
          "internalType": "uint256",
          "name": "settlementType",
          "type": "uint256"
        },
        {
          "internalType": "uint256",
          "name": "initialSellerMargin",
          "type": "uint256"
        },
        {
          "internalType": "uint256",
          "name": "strikePrice",
          "type": "uint256"
        },
        {
          "internalType": "uint256",
          "name": "cost",
          "type": "uint256"
        },
        {
          "internalType": "uint256",
          "name": "quantity",
          "type": "uint256"
        },
        {
          "internalType": "uint256",
          "name": "expiry",
          "type": "uint256"
        }
      ],
      "payable": false,
      "stateMutability": "view",
      "type": "function"
    },
    {
      "constant": true,
      "inputs": [],
      "name": "oracleIDDescriptionsAddress",
      "outputs": [
        {
          "internalType": "address",
          "name": "",
          "type": "address"
        }
      ],
      "payable": false,
      "stateMutability": "view",
      "type": "function"
    },
    {
      "constant": false,
      "inputs": [
        {
          "internalType": "address",
          "name": "_oracleDescriptors",
          "type": "address"
        }
      ],
      "name": "setOracleIDDescriptors",
      "outputs": [],
      "payable": false,
      "stateMutability": "nonpayable",
      "type": "function"
    },
    {
      "constant": true,
      "inputs": [],
      "name": "tellorStorageAddress",
      "outputs": [
        {
          "internalType": "address payable",
          "name": "",
          "type": "address"
        }
      ],
      "payable": false,
      "stateMutability": "view",
      "type": "function"
    },
    {
      "constant": true,
      "inputs": [],
      "name": "uniqueId",
      "outputs": [
        {
          "internalType": "uint256",
          "name": "",
          "type": "uint256"
        }
      ],
      "payable": false,
      "stateMutability": "view",
      "type": "function"
    },
    {
      "constant": true,
      "inputs": [
        {
          "internalType": "bytes32",
          "name": "_bytesId",
          "type": "bytes32"
        }
      ],
      "name": "valueFor",
      "outputs": [
        {
          "internalType": "int256",
          "name": "value",
          "type": "int256"
        },
        {
          "internalType": "uint256",
          "name": "timestamp",
          "type": "uint256"
        },
        {
          "internalType": "uint256",
          "name": "status",
          "type": "uint256"
        }
      ],
      "payable": false,
      "stateMutability": "view",
      "type": "function"
    },
    {
      "constant": false,
      "inputs": [
        {
          "internalType": "uint256",
          "name": "_strikePrice",
          "type": "uint256"
        },
        {
          "internalType": "uint256",
          "name": "_cost",
          "type": "uint256"
        },
        {
          "internalType": "uint256",
          "name": "_quantity",
          "type": "uint256"
        }
      ],
      "name": "createNewOptionLong",
      "outputs": [],
      "payable": false,
      "stateMutability": "nonpayable",
      "type": "function"
    },
    {
      "constant": false,
      "inputs": [
        {
          "internalType": "uint256",
          "name": "_type",
          "type": "uint256"
        },
        {
          "internalType": "uint256",
          "name": "_strikePrice",
          "type": "uint256"
        },
        {
          "internalType": "uint256",
          "name": "_cost",
          "type": "uint256"
        },
        {
          "internalType": "uint256",
          "name": "_quantity",
          "type": "uint256"
        },
        {
          "internalType": "uint256",
          "name": "_initialMargin",
          "type": "uint256"
        }
      ],
      "name": "createNewOptionShort",
      "outputs": [],
      "payable": true,
      "stateMutability": "payable",
      "type": "function"
    },
    {
      "constant": false,
      "inputs": [
        {
          "internalType": "uint256",
          "name": "_id",
          "type": "uint256"
        }
      ],
      "name": "buyToOpen",
      "outputs": [],
      "payable": false,
      "stateMutability": "nonpayable",
      "type": "function"
    },
    {
      "constant": false,
      "inputs": [
        {
          "internalType": "uint256",
          "name": "_id",
          "type": "uint256"
        },
        {
          "internalType": "uint256",
          "name": "_type",
          "type": "uint256"
        },
        {
          "internalType": "uint256",
          "name": "_initialMargin",
          "type": "uint256"
        }
      ],
      "name": "sellToOpen",
      "outputs": [],
      "payable": true,
      "stateMutability": "payable",
      "type": "function"
    },
    {
      "constant": false,
      "inputs": [
        {
          "internalType": "uint256",
          "name": "_id",
          "type": "uint256"
        }
      ],
      "name": "settleOption",
      "outputs": [],
      "payable": false,
      "stateMutability": "nonpayable",
      "type": "function"
    },
    {
      "constant": false,
      "inputs": [
        {
          "internalType": "uint256",
          "name": "_id",
          "type": "uint256"
        }
      ],
      "name": "closeOption",
      "outputs": [],
      "payable": false,
      "stateMutability": "nonpayable",
      "type": "function"
    },
    {
      "constant": false,
      "inputs": [
        {
          "internalType": "uint256",
          "name": "_id",
          "type": "uint256"
        }
      ],
      "name": "refundExpired",
      "outputs": [],
      "payable": false,
      "stateMutability": "nonpayable",
      "type": "function"
    },
    {
      "constant": true,
      "inputs": [
        {
          "internalType": "address",
          "name": "_address",
          "type": "address"
        }
      ],
      "name": "getOptionsCount",
      "outputs": [
        {
          "internalType": "uint256",
          "name": "",
          "type": "uint256"
        }
      ],
      "payable": false,
      "stateMutability": "view",
      "type": "function"
    }
  ],
  "bytecode": "0x608060405234801561001057600080fd5b506040516200492a3803806200492a8339818101604052604081101561003557600080fd5b810190808051906020019092919080519060200190929190505050808083806000806101000a81548173ffffffffffffffffffffffffffffffffffffffff021916908373ffffffffffffffffffffffffffffffffffffffff1602179055505080600160006101000a81548173ffffffffffffffffffffffffffffffffffffffff021916908373ffffffffffffffffffffffffffffffffffffffff160217905550600160009054906101000a900473ffffffffffffffffffffffffffffffffffffffff16600360006101000a81548173ffffffffffffffffffffffffffffffffffffffff021916908373ffffffffffffffffffffffffffffffffffffffff160217905550506001600581905550602760068190555050600160078190555033600860006101000a81548173ffffffffffffffffffffffffffffffffffffffff021916908373ffffffffffffffffffffffffffffffffffffffff160217905550505061478580620001a56000396000f3fe60806040526004361061012a5760003560e01c8063629c52a9116100ab578063a80209731161006f578063a802097314610650578063ae4c7aa1146106a7578063b4c42f37146106e2578063b8255d4514610739578063bb97f31d1461076b578063f78eea83146107bc5761012a565b8063629c52a9146104ef57806362befb1e1461051a57806366b446111461054557806377d3f062146105b057806383b6fa98146106155761012a565b806348f28219116100f257806348f28219146103525780634efeca6114610384578063526366b4146103da5780635485dd72146104315780635bcacc73146104805761012a565b806310682ed21461012f5780631402b17a1461023957806329ae7c4a146102745780633f4c7ae5146102af5780633fcad964146102f1575b600080fd5b34801561013b57600080fd5b506101686004803603602081101561015257600080fd5b8101908080359060200190929190505050610819565b604051808d1515151581526020018c1515151581526020018b73ffffffffffffffffffffffffffffffffffffffff1673ffffffffffffffffffffffffffffffffffffffff1681526020018a73ffffffffffffffffffffffffffffffffffffffff1673ffffffffffffffffffffffffffffffffffffffff1681526020018960018111156101f057fe5b60ff1681526020018881526020018781526020018681526020018581526020018481526020018381526020018281526020019c5050505050505050505050505060405180910390f35b34801561024557600080fd5b506102726004803603602081101561025c57600080fd5b81019080803590602001909291905050506108e0565b005b34801561028057600080fd5b506102ad6004803603602081101561029757600080fd5b8101908080359060200190929190505050610e9a565b005b6102ef600480360360608110156102c557600080fd5b81019080803590602001909291908035906020019092919080359060200190929190505050611627565b005b3480156102fd57600080fd5b5061032a6004803603602081101561031457600080fd5b8101908080359060200190929190505050611f6c565b6040518084151515158152602001838152602001828152602001935050505060405180910390f35b34801561035e57600080fd5b50610367611f88565b604051808381526020018281526020019250505060405180910390f35b6103d8600480360360a081101561039a57600080fd5b81019080803590602001909291908035906020019092919080359060200190929190803590602001909291908035906020019092919050505061200a565b005b3480156103e657600080fd5b506103ef6125c2565b604051808273ffffffffffffffffffffffffffffffffffffffff1673ffffffffffffffffffffffffffffffffffffffff16815260200191505060405180910390f35b34801561043d57600080fd5b5061047e6004803603606081101561045457600080fd5b810190808035906020019092919080359060200190929190803590602001909291905050506125e8565b005b34801561048c57600080fd5b506104d9600480360360408110156104a357600080fd5b81019080803573ffffffffffffffffffffffffffffffffffffffff169060200190929190803590602001909291905050506129da565b6040518082815260200191505060405180910390f35b3480156104fb57600080fd5b50610504612a08565b6040518082815260200191505060405180910390f35b34801561052657600080fd5b5061052f612a0e565b6040518082815260200191505060405180910390f35b34801561055157600080fd5b506105886004803603604081101561056857600080fd5b810190808035906020019092919080359060200190929190505050612abe565b6040518084151515158152602001838152602001828152602001935050505060405180910390f35b3480156105bc57600080fd5b506105ff600480360360208110156105d357600080fd5b81019080803573ffffffffffffffffffffffffffffffffffffffff169060200190929190505050612e15565b6040518082815260200191505060405180910390f35b34801561062157600080fd5b5061064e6004803603602081101561063857600080fd5b8101908080359060200190929190505050612e61565b005b34801561065c57600080fd5b50610665613875565b604051808273ffffffffffffffffffffffffffffffffffffffff1673ffffffffffffffffffffffffffffffffffffffff16815260200191505060405180910390f35b3480156106b357600080fd5b506106e0600480360360208110156106ca57600080fd5b810190808035906020019092919050505061389b565b005b3480156106ee57600080fd5b506106f7613f28565b604051808273ffffffffffffffffffffffffffffffffffffffff1673ffffffffffffffffffffffffffffffffffffffff16815260200191505060405180910390f35b34801561074557600080fd5b5061074e613f4d565b604051808381526020018281526020019250505060405180910390f35b34801561077757600080fd5b506107ba6004803603602081101561078e57600080fd5b81019080803573ffffffffffffffffffffffffffffffffffffffff169060200190929190505050613fcf565b005b3480156107c857600080fd5b506107f5600480360360208110156107df57600080fd5b810190808035906020019092919050505061417b565b60405180848152602001838152602001828152602001935050505060405180910390f35b60096020528060005260406000206000915090508060000160009054906101000a900460ff16908060000160019054906101000a900460ff16908060000160029054906101000a900473ffffffffffffffffffffffffffffffffffffffff16908060010160009054906101000a900473ffffffffffffffffffffffffffffffffffffffff16908060010160149054906101000a900460ff1690806002015490806003015490806004015490806005015490806006015490806007015490806008015490508c565b60096000828152602001908152602001600020604051806101800160405290816000820160009054906101000a900460ff161515151581526020016000820160019054906101000a900460ff161515151581526020016000820160029054906101000a900473ffffffffffffffffffffffffffffffffffffffff1673ffffffffffffffffffffffffffffffffffffffff1673ffffffffffffffffffffffffffffffffffffffff1681526020016001820160009054906101000a900473ffffffffffffffffffffffffffffffffffffffff1673ffffffffffffffffffffffffffffffffffffffff1673ffffffffffffffffffffffffffffffffffffffff1681526020016001820160149054906101000a900460ff1660018111156109ff57fe5b6001811115610a0a57fe5b815260200160028201548152602001600382015481526020016004820154815260200160058201548152602001600682015481526020016007820154815260200160088201548152505060008160a001511415610acf576040517f08c379a000000000000000000000000000000000000000000000000000000000815260040180806020018281038252600e8152602001807f496e76616c6964206f7074696f6e00000000000000000000000000000000000081525060200191505060405180910390fd5b806000015115610b47576040517f08c379a00000000000000000000000000000000000000000000000000000000081526004018080602001828103825260128152602001807f4f7074696f6e206e6f742066696c6c656421000000000000000000000000000081525060200191505060405180910390fd5b806020015115610bbf576040517f08c379a00000000000000000000000000000000000000000000000000000000081526004018080602001828103825260108152602001807f416c726561647920736574746c6564210000000000000000000000000000000081525060200191505060405180910390fd5b4281610160015110610c39576040517f08c379a00000000000000000000000000000000000000000000000000000000081526004018080602001828103825260108152602001807f4e6f74207965742065787069726564210000000000000000000000000000000081525060200191505060405180910390fd5b60006009600084815260200190815260200160002090508060010160009054906101000a900473ffffffffffffffffffffffffffffffffffffffff1673ffffffffffffffffffffffffffffffffffffffff163373ffffffffffffffffffffffffffffffffffffffff1614610d15576040517f08c379a000000000000000000000000000000000000000000000000000000000815260040180806020018281038252600e8152602001807f57726f6e6720616464726573732100000000000000000000000000000000000081525060200191505060405180910390fd5b600081600301541415610d72573373ffffffffffffffffffffffffffffffffffffffff166108fc82600701549081150290604051600060405180830381858888f19350505050158015610d6c573d6000803e3d6000fd5b50610e5b565b6000809054906101000a900473ffffffffffffffffffffffffffffffffffffffff1673ffffffffffffffffffffffffffffffffffffffff1663a9059cbb3383600401546040518363ffffffff1660e01b8152600401808373ffffffffffffffffffffffffffffffffffffffff1673ffffffffffffffffffffffffffffffffffffffff16815260200182815260200192505050602060405180830381600087803b158015610e1e57600080fd5b505af1158015610e32573d6000803e3d6000fd5b505050506040513d6020811015610e4857600080fd5b8101908080519060200190929190505050505b60018160000160016101000a81548160ff02191690831515021790555060008160000160006101000a81548160ff021916908315150217905550505050565b60096000828152602001908152602001600020604051806101800160405290816000820160009054906101000a900460ff161515151581526020016000820160019054906101000a900460ff161515151581526020016000820160029054906101000a900473ffffffffffffffffffffffffffffffffffffffff1673ffffffffffffffffffffffffffffffffffffffff1673ffffffffffffffffffffffffffffffffffffffff1681526020016001820160009054906101000a900473ffffffffffffffffffffffffffffffffffffffff1673ffffffffffffffffffffffffffffffffffffffff1673ffffffffffffffffffffffffffffffffffffffff1681526020016001820160149054906101000a900460ff166001811115610fb957fe5b6001811115610fc457fe5b81526020016002820154815260200160038201548152602001600482015481526020016005820154815260200160068201548152602001600782015481526020016008820154815250508060000151611068576040517f08c379a000000000000000000000000000000000000000000000000000000000815260040180806020018281038252603a8152602001806146b8603a913960400191505060405180910390fd5b60008160a0015114156110e3576040517f08c379a00000000000000000000000000000000000000000000000000000000081526004018080602001828103825260118152602001807f496e76616c6964206f7074696f6e20696400000000000000000000000000000081525060200191505060405180910390fd5b428161016001511161115d576040517f08c379a00000000000000000000000000000000000000000000000000000000081526004018080602001828103825260138152602001807f4f7074696f6e206861732065787069726564210000000000000000000000000081525060200191505060405180910390fd5b60006009600084815260200190815260200160002090506000600181111561118157fe5b8160010160149054906101000a900460ff16600181111561119e57fe5b14611211576040517f08c379a00000000000000000000000000000000000000000000000000000000081526004018080602001828103825260168152602001807f57726f6e67206f7074696f6e2073656c6563746564210000000000000000000081525060200191505060405180910390fd5b8060010160009054906101000a900473ffffffffffffffffffffffffffffffffffffffff1673ffffffffffffffffffffffffffffffffffffffff163373ffffffffffffffffffffffffffffffffffffffff1614156112d7576040517f08c379a000000000000000000000000000000000000000000000000000000000815260040180806020018281038252601d8152602001807f596f752073656c656374656420796f7572206f776e206f7074696f6e2100000081525060200191505060405180910390fd5b60008060009054906101000a900473ffffffffffffffffffffffffffffffffffffffff1673ffffffffffffffffffffffffffffffffffffffff166323b872dd333085600601546040518463ffffffff1660e01b8152600401808473ffffffffffffffffffffffffffffffffffffffff1673ffffffffffffffffffffffffffffffffffffffff1681526020018373ffffffffffffffffffffffffffffffffffffffff1673ffffffffffffffffffffffffffffffffffffffff1681526020018281526020019350505050602060405180830381600087803b1580156113b957600080fd5b505af11580156113cd573d6000803e3d6000fd5b505050506040513d60208110156113e357600080fd5b810190808051906020019092919050505090508061144c576040517f08c379a000000000000000000000000000000000000000000000000000000000815260040180806020018281038252602681526020018061465c6026913960400191505060405180910390fd5b6000809054906101000a900473ffffffffffffffffffffffffffffffffffffffff1673ffffffffffffffffffffffffffffffffffffffff1663a9059cbb8360010160009054906101000a900473ffffffffffffffffffffffffffffffffffffffff1684600601546040518363ffffffff1660e01b8152600401808373ffffffffffffffffffffffffffffffffffffffff1673ffffffffffffffffffffffffffffffffffffffff16815260200182815260200192505050602060405180830381600087803b15801561151c57600080fd5b505af1158015611530573d6000803e3d6000fd5b505050506040513d602081101561154657600080fd5b81019080805190602001909291905050505060008260000160006101000a81548160ff021916908315150217905550338260000160026101000a81548173ffffffffffffffffffffffffffffffffffffffff021916908373ffffffffffffffffffffffffffffffffffffffff160217905550600a60003373ffffffffffffffffffffffffffffffffffffffff1673ffffffffffffffffffffffffffffffffffffffff16815260200190815260200160002084908060018154018082558091505090600182039060005260206000200160009091929091909150555050505050565b60096000848152602001908152602001600020604051806101800160405290816000820160009054906101000a900460ff161515151581526020016000820160019054906101000a900460ff161515151581526020016000820160029054906101000a900473ffffffffffffffffffffffffffffffffffffffff1673ffffffffffffffffffffffffffffffffffffffff1673ffffffffffffffffffffffffffffffffffffffff1681526020016001820160009054906101000a900473ffffffffffffffffffffffffffffffffffffffff1673ffffffffffffffffffffffffffffffffffffffff1673ffffffffffffffffffffffffffffffffffffffff1681526020016001820160149054906101000a900460ff16600181111561174657fe5b600181111561175157fe5b815260200160028201548152602001600382015481526020016004820154815260200160058201548152602001600682015481526020016007820154815260200160088201548152505080600001516117f5576040517f08c379a000000000000000000000000000000000000000000000000000000000815260040180806020018281038252603a8152602001806146b8603a913960400191505060405180910390fd5b60008160a001511415611870576040517f08c379a00000000000000000000000000000000000000000000000000000000081526004018080602001828103825260118152602001807f496e76616c6964206f7074696f6e20696400000000000000000000000000000081525060200191505060405180910390fd5b42816101600151116118ea576040517f08c379a00000000000000000000000000000000000000000000000000000000081526004018080602001828103825260138152602001807f4f7074696f6e206861732065787069726564210000000000000000000000000081525060200191505060405180910390fd5b60008314806118f95750600183145b61196b576040517f08c379a00000000000000000000000000000000000000000000000000000000081526004018080602001828103825260168152602001807f496e76616c696420747970652073656c6563746564210000000000000000000081525060200191505060405180910390fd5b600060096000868152602001908152602001600020905060018081111561198e57fe5b8160010160149054906101000a900460ff1660018111156119ab57fe5b14611a1e576040517f08c379a00000000000000000000000000000000000000000000000000000000081526004018080602001828103825260168152602001807f57726f6e67206f7074696f6e2073656c6563746564210000000000000000000081525060200191505060405180910390fd5b8060000160029054906101000a900473ffffffffffffffffffffffffffffffffffffffff1673ffffffffffffffffffffffffffffffffffffffff163373ffffffffffffffffffffffffffffffffffffffff161415611ae4576040517f08c379a000000000000000000000000000000000000000000000000000000000815260040180806020018281038252601d8152602001807f596f752073656c656374656420796f7572206f776e206f7074696f6e2100000081525060200191505060405180910390fd5b6000841415611b4e5780600701543414611b49576040517f08c379a00000000000000000000000000000000000000000000000000000000081526004018080602001828103825260398152602001806146f26039913960400191505060405180910390fd5b611da2565b6000611b6e611b5b612a0e565b836007015461456090919063ffffffff16565b9050611b8b670de0b6b3a76400008261458f90919063ffffffff16565b90506000611bb5611ba660038461458f90919063ffffffff16565b836145a890919063ffffffff16565b905080851015611c2d576040517f08c379a000000000000000000000000000000000000000000000000000000000815260040180806020018281038252601c8152602001807f496e73756666696369656e74206d617267696e2070726f76696465640000000081525060200191505060405180910390fd5b60008060009054906101000a900473ffffffffffffffffffffffffffffffffffffffff1673ffffffffffffffffffffffffffffffffffffffff166323b872dd3330896040518463ffffffff1660e01b8152600401808473ffffffffffffffffffffffffffffffffffffffff1673ffffffffffffffffffffffffffffffffffffffff1681526020018373ffffffffffffffffffffffffffffffffffffffff1673ffffffffffffffffffffffffffffffffffffffff1681526020018281526020019350505050602060405180830381600087803b158015611d0b57600080fd5b505af1158015611d1f573d6000803e3d6000fd5b505050506040513d6020811015611d3557600080fd5b8101908080519060200190929190505050905080611d9e576040517f08c379a00000000000000000000000000000000000000000000000000000000081526004018080602001828103825260368152602001806146826036913960400191505060405180910390fd5b5050505b6000809054906101000a900473ffffffffffffffffffffffffffffffffffffffff1673ffffffffffffffffffffffffffffffffffffffff1663a9059cbb3383600601546040518363ffffffff1660e01b8152600401808373ffffffffffffffffffffffffffffffffffffffff1673ffffffffffffffffffffffffffffffffffffffff16815260200182815260200192505050602060405180830381600087803b158015611e4e57600080fd5b505af1158015611e62573d6000803e3d6000fd5b505050506040513d6020811015611e7857600080fd5b81019080805190602001909291905050505083816003018190555082816004018190555060008160000160006101000a81548160ff021916908315150217905550338160010160006101000a81548173ffffffffffffffffffffffffffffffffffffffff021916908373ffffffffffffffffffffffffffffffffffffffff160217905550600a60003373ffffffffffffffffffffffffffffffffffffffff1673ffffffffffffffffffffffffffffffffffffffff1681526020019081526020016000208590806001815401808255809150509060018203906000526020600020016000909192909190915055505050505050565b6000806000611f7b8442612abe565b9250925092509193909250565b600080600080600080611fa1600654610e104203612abe565b80955081945082965050505083611fc657611fbd600654611f6c565b90915050809250505b611fd7600654620151804203612abe565b80955081935082965050505083611ffc57611ff3600654611f6c565b90915050809150505b808295509550505050509091565b60008514806120195750600185145b61208b576040517f08c379a00000000000000000000000000000000000000000000000000000000081526004018080602001828103825260188152602001807f496e76616c696420736574746c656d656e74207479706521000000000000000081525060200191505060405180910390fd5b60008514156120f1578134146120ec576040517f08c379a00000000000000000000000000000000000000000000000000000000081526004018080602001828103825260398152602001806146f26039913960400191505060405180910390fd5b612341565b600061210d6120fe612a0e565b8461456090919063ffffffff16565b905061212a670de0b6b3a76400008261458f90919063ffffffff16565b9050600061215461214560038461458f90919063ffffffff16565b836145a890919063ffffffff16565b9050808310156121cc576040517f08c379a000000000000000000000000000000000000000000000000000000000815260040180806020018281038252601c8152602001807f496e73756666696369656e74206d617267696e2070726f76696465640000000081525060200191505060405180910390fd5b60008060009054906101000a900473ffffffffffffffffffffffffffffffffffffffff1673ffffffffffffffffffffffffffffffffffffffff166323b872dd3330876040518463ffffffff1660e01b8152600401808473ffffffffffffffffffffffffffffffffffffffff1673ffffffffffffffffffffffffffffffffffffffff1681526020018373ffffffffffffffffffffffffffffffffffffffff1673ffffffffffffffffffffffffffffffffffffffff1681526020018281526020019350505050602060405180830381600087803b1580156122aa57600080fd5b505af11580156122be573d6000803e3d6000fd5b505050506040513d60208110156122d457600080fd5b810190808051906020019092919050505090508061233d576040517f08c379a00000000000000000000000000000000000000000000000000000000081526004018080602001828103825260368152602001806146826036913960400191505060405180910390fd5b5050505b6123496145bf565b604051806101800160405280600115158152602001600015158152602001600073ffffffffffffffffffffffffffffffffffffffff1681526020013373ffffffffffffffffffffffffffffffffffffffff168152602001600060018111156123ad57fe5b815260200160075481526020018781526020018381526020018681526020018581526020018481526020016202a300420181525090508060096000600754815260200190815260200160002060008201518160000160006101000a81548160ff02191690831515021790555060208201518160000160016101000a81548160ff02191690831515021790555060408201518160000160026101000a81548173ffffffffffffffffffffffffffffffffffffffff021916908373ffffffffffffffffffffffffffffffffffffffff16021790555060608201518160010160006101000a81548173ffffffffffffffffffffffffffffffffffffffff021916908373ffffffffffffffffffffffffffffffffffffffff16021790555060808201518160010160146101000a81548160ff021916908360018111156124eb57fe5b021790555060a0820151816002015560c0820151816003015560e082015181600401556101008201518160050155610120820151816006015561014082015181600701556101608201518160080155905050600a60003373ffffffffffffffffffffffffffffffffffffffff1673ffffffffffffffffffffffffffffffffffffffff1681526020019081526020016000206007549080600181540180825580915050906001820390600052602060002001600090919290919091505550600760008154809291906001019190505550505050505050565b600260009054906101000a900473ffffffffffffffffffffffffffffffffffffffff1681565b60008060009054906101000a900473ffffffffffffffffffffffffffffffffffffffff1673ffffffffffffffffffffffffffffffffffffffff166323b872dd3330866040518463ffffffff1660e01b8152600401808473ffffffffffffffffffffffffffffffffffffffff1673ffffffffffffffffffffffffffffffffffffffff1681526020018373ffffffffffffffffffffffffffffffffffffffff1673ffffffffffffffffffffffffffffffffffffffff1681526020018281526020019350505050602060405180830381600087803b1580156126c657600080fd5b505af11580156126da573d6000803e3d6000fd5b505050506040513d60208110156126f057600080fd5b8101908080519060200190929190505050905080612759576040517f08c379a00000000000000000000000000000000000000000000000000000000081526004018080602001828103825260368152602001806146826036913960400191505060405180910390fd5b6127616145bf565b6040518061018001604052806001151581526020016000151581526020013373ffffffffffffffffffffffffffffffffffffffff168152602001600073ffffffffffffffffffffffffffffffffffffffff1681526020016001808111156127c457fe5b8152602001600754815260200160008152602001600081526020018681526020018581526020018481526020016202a300420181525090508060096000600754815260200190815260200160002060008201518160000160006101000a81548160ff02191690831515021790555060208201518160000160016101000a81548160ff02191690831515021790555060408201518160000160026101000a81548173ffffffffffffffffffffffffffffffffffffffff021916908373ffffffffffffffffffffffffffffffffffffffff16021790555060608201518160010160006101000a81548173ffffffffffffffffffffffffffffffffffffffff021916908373ffffffffffffffffffffffffffffffffffffffff16021790555060808201518160010160146101000a81548160ff0219169083600181111561290457fe5b021790555060a0820151816002015560c0820151816003015560e082015181600401556101008201518160050155610120820151816006015561014082015181600701556101608201518160080155905050600a60003373ffffffffffffffffffffffffffffffffffffffff1673ffffffffffffffffffffffffffffffffffffffff16815260200190815260200160002060075490806001815401808255809150509060018203906000526020600020016000909192909190915055506007600081548092919060010191905055505050505050565b600a60205281600052604060002081815481106129f357fe5b90600052602060002001600091509150505481565b60075481565b600080600080600080612a27600554610e104203612abe565b80935081975082945050505081612a4c57612a43600554611f6c565b90915050809550505b612a5c600654610e104203612abe565b80935081965082945050505081612a8157612a78600654611f6c565b90915050809450505b612a9c670de0b6b3a76400008661456090919063ffffffff16565b9450612ab1848661458f90919063ffffffff16565b9250829550505050505090565b600080600080600360009054906101000a900473ffffffffffffffffffffffffffffffffffffffff1673ffffffffffffffffffffffffffffffffffffffff166346eee1c4876040518263ffffffff1660e01b81526004018082815260200191505060206040518083038186803b158015612b3757600080fd5b505afa158015612b4b573d6000803e3d6000fd5b505050506040513d6020811015612b6157600080fd5b810190808051906020019092919050505090506000811115612dfb5760008190505b6000811115612df9576000600360009054906101000a900473ffffffffffffffffffffffffffffffffffffffff1673ffffffffffffffffffffffffffffffffffffffff166377fbb66389600185036040518363ffffffff1660e01b8152600401808381526020018281526020019250505060206040518083038186803b158015612c0c57600080fd5b505afa158015612c20573d6000803e3d6000fd5b505050506040513d6020811015612c3657600080fd5b81019080805190602001909291905050509050600081118015612c595750868111155b8015612d1e575060001515600360009054906101000a900473ffffffffffffffffffffffffffffffffffffffff1673ffffffffffffffffffffffffffffffffffffffff16633df0777b8a846040518363ffffffff1660e01b8152600401808381526020018281526020019250505060206040518083038186803b158015612cdf57600080fd5b505afa158015612cf3573d6000803e3d6000fd5b505050506040513d6020811015612d0957600080fd5b81019080805190602001909291905050501515145b15612dea576001600360009054906101000a900473ffffffffffffffffffffffffffffffffffffffff1673ffffffffffffffffffffffffffffffffffffffff166393fa49158a846040518363ffffffff1660e01b8152600401808381526020018281526020019250505060206040518083038186803b158015612da057600080fd5b505afa158015612db4573d6000803e3d6000fd5b505050506040513d6020811015612dca57600080fd5b810190808051906020019092919050505082955095509550505050612e0e565b50808060019003915050612b83565b505b6000806000819150809050935093509350505b9250925092565b6000600a60008373ffffffffffffffffffffffffffffffffffffffff1673ffffffffffffffffffffffffffffffffffffffff168152602001908152602001600020805490509050919050565b60096000828152602001908152602001600020604051806101800160405290816000820160009054906101000a900460ff161515151581526020016000820160019054906101000a900460ff161515151581526020016000820160029054906101000a900473ffffffffffffffffffffffffffffffffffffffff1673ffffffffffffffffffffffffffffffffffffffff1673ffffffffffffffffffffffffffffffffffffffff1681526020016001820160009054906101000a900473ffffffffffffffffffffffffffffffffffffffff1673ffffffffffffffffffffffffffffffffffffffff1673ffffffffffffffffffffffffffffffffffffffff1681526020016001820160149054906101000a900460ff166001811115612f8057fe5b6001811115612f8b57fe5b815260200160028201548152602001600382015481526020016004820154815260200160058201548152602001600682015481526020016007820154815260200160088201548152505060008160a001511415613050576040517f08c379a00000000000000000000000000000000000000000000000000000000081526004018080602001828103825260118152602001807f496e76616c6964206f7074696f6e20696400000000000000000000000000000081525060200191505060405180910390fd5b8060000151156130c8576040517f08c379a00000000000000000000000000000000000000000000000000000000081526004018080602001828103825260198152602001807f4f7074696f6e206e6f742079657420636f6e6669726d6564210000000000000081525060200191505060405180910390fd5b806020015115613140576040517f08c379a00000000000000000000000000000000000000000000000000000000081526004018080602001828103825260168152602001807f4f7074696f6e20616c726561647920736574746c65640000000000000000000081525060200191505060405180910390fd5b42816101600151116131ba576040517f08c379a000000000000000000000000000000000000000000000000000000000815260040180806020018281038252600f8152602001807f4f7074696f6e206578706972656421000000000000000000000000000000000081525060200191505060405180910390fd5b600060096000848152602001908152602001600020905060006131f16131de612a0e565b836007015461456090919063ffffffff16565b905061320e670de0b6b3a76400008261458f90919063ffffffff16565b905081600501548111613289576040517f08c379a000000000000000000000000000000000000000000000000000000000815260040180806020018281038252600c8152602001807f4c6f73737920636c6f736521000000000000000000000000000000000000000081525060200191505060405180910390fd5b8160000160029054906101000a900473ffffffffffffffffffffffffffffffffffffffff1673ffffffffffffffffffffffffffffffffffffffff163373ffffffffffffffffffffffffffffffffffffffff161461334e576040517f08c379a00000000000000000000000000000000000000000000000000000000081526004018080602001828103825260128152602001807f556e617574686f72697a65642063616c6c21000000000000000000000000000081525060200191505060405180910390fd5b60008260030154141561362d5760008060009054906101000a900473ffffffffffffffffffffffffffffffffffffffff1673ffffffffffffffffffffffffffffffffffffffff166323b872dd333086600501546040518463ffffffff1660e01b8152600401808473ffffffffffffffffffffffffffffffffffffffff1673ffffffffffffffffffffffffffffffffffffffff1681526020018373ffffffffffffffffffffffffffffffffffffffff1673ffffffffffffffffffffffffffffffffffffffff1681526020018281526020019350505050602060405180830381600087803b15801561343d57600080fd5b505af1158015613451573d6000803e3d6000fd5b505050506040513d602081101561346757600080fd5b81019080805190602001909291905050509050806134d0576040517f08c379a000000000000000000000000000000000000000000000000000000000815260040180806020018281038252602681526020018061472b6026913960400191505060405180910390fd5b3373ffffffffffffffffffffffffffffffffffffffff166108fc84600701549081150290604051600060405180830381858888f1935050505015801561351a573d6000803e3d6000fd5b506000809054906101000a900473ffffffffffffffffffffffffffffffffffffffff1673ffffffffffffffffffffffffffffffffffffffff1663a9059cbb8460010160009054906101000a900473ffffffffffffffffffffffffffffffffffffffff1685600501546040518363ffffffff1660e01b8152600401808373ffffffffffffffffffffffffffffffffffffffff1673ffffffffffffffffffffffffffffffffffffffff16815260200182815260200192505050602060405180830381600087803b1580156135eb57600080fd5b505af11580156135ff573d6000803e3d6000fd5b505050506040513d602081101561361557600080fd5b81019080805190602001909291905050505050613852565b60006136468360050154836145a890919063ffffffff16565b90506000809054906101000a900473ffffffffffffffffffffffffffffffffffffffff1673ffffffffffffffffffffffffffffffffffffffff1663a9059cbb33836040518363ffffffff1660e01b8152600401808373ffffffffffffffffffffffffffffffffffffffff1673ffffffffffffffffffffffffffffffffffffffff16815260200182815260200192505050602060405180830381600087803b1580156136f057600080fd5b505af1158015613704573d6000803e3d6000fd5b505050506040513d602081101561371a57600080fd5b81019080805190602001909291905050505060006137458285600401546145a890919063ffffffff16565b90506000809054906101000a900473ffffffffffffffffffffffffffffffffffffffff1673ffffffffffffffffffffffffffffffffffffffff1663a9059cbb8560010160009054906101000a900473ffffffffffffffffffffffffffffffffffffffff16836040518363ffffffff1660e01b8152600401808373ffffffffffffffffffffffffffffffffffffffff1673ffffffffffffffffffffffffffffffffffffffff16815260200182815260200192505050602060405180830381600087803b15801561381357600080fd5b505af1158015613827573d6000803e3d6000fd5b505050506040513d602081101561383d57600080fd5b81019080805190602001909291905050505050505b60018260000160016101000a81548160ff02191690831515021790555050505050565b600160009054906101000a900473ffffffffffffffffffffffffffffffffffffffff1681565b60096000828152602001908152602001600020604051806101800160405290816000820160009054906101000a900460ff161515151581526020016000820160019054906101000a900460ff161515151581526020016000820160029054906101000a900473ffffffffffffffffffffffffffffffffffffffff1673ffffffffffffffffffffffffffffffffffffffff1673ffffffffffffffffffffffffffffffffffffffff1681526020016001820160009054906101000a900473ffffffffffffffffffffffffffffffffffffffff1673ffffffffffffffffffffffffffffffffffffffff1673ffffffffffffffffffffffffffffffffffffffff1681526020016001820160149054906101000a900460ff1660018111156139ba57fe5b60018111156139c557fe5b81526020016002820154815260200160038201548152602001600482015481526020016005820154815260200160068201548152602001600782015481526020016008820154815250508060000151613a69576040517f08c379a000000000000000000000000000000000000000000000000000000000815260040180806020018281038252603a8152602001806146b8603a913960400191505060405180910390fd5b60008160a001511415613ae4576040517f08c379a00000000000000000000000000000000000000000000000000000000081526004018080602001828103825260118152602001807f496e76616c6964206f7074696f6e20696400000000000000000000000000000081525060200191505060405180910390fd5b600060096000848152602001908152602001600020905060006001811115613b0857fe5b8160010160149054906101000a900460ff166001811115613b2557fe5b1415613d3b578060010160009054906101000a900473ffffffffffffffffffffffffffffffffffffffff1673ffffffffffffffffffffffffffffffffffffffff163373ffffffffffffffffffffffffffffffffffffffff1614613bf0576040517f08c379a000000000000000000000000000000000000000000000000000000000815260040180806020018281038252600f8152602001807f4e6f7420617574686f726973656421000000000000000000000000000000000081525060200191505060405180910390fd5b600081600301541415613c4d573373ffffffffffffffffffffffffffffffffffffffff166108fc82600701549081150290604051600060405180830381858888f19350505050158015613c47573d6000803e3d6000fd5b50613d36565b6000809054906101000a900473ffffffffffffffffffffffffffffffffffffffff1673ffffffffffffffffffffffffffffffffffffffff1663a9059cbb3383600401546040518363ffffffff1660e01b8152600401808373ffffffffffffffffffffffffffffffffffffffff1673ffffffffffffffffffffffffffffffffffffffff16815260200182815260200192505050602060405180830381600087803b158015613cf957600080fd5b505af1158015613d0d573d6000803e3d6000fd5b505050506040513d6020811015613d2357600080fd5b8101908080519060200190929190505050505b613ee9565b8060000160029054906101000a900473ffffffffffffffffffffffffffffffffffffffff1673ffffffffffffffffffffffffffffffffffffffff163373ffffffffffffffffffffffffffffffffffffffff1614613e00576040517f08c379a000000000000000000000000000000000000000000000000000000000815260040180806020018281038252600f8152602001807f4e6f7420617574686f726973656421000000000000000000000000000000000081525060200191505060405180910390fd5b6000809054906101000a900473ffffffffffffffffffffffffffffffffffffffff1673ffffffffffffffffffffffffffffffffffffffff1663a9059cbb3383600601546040518363ffffffff1660e01b8152600401808373ffffffffffffffffffffffffffffffffffffffff1673ffffffffffffffffffffffffffffffffffffffff16815260200182815260200192505050602060405180830381600087803b158015613eac57600080fd5b505af1158015613ec0573d6000803e3d6000fd5b505050506040513d6020811015613ed657600080fd5b8101908080519060200190929190505050505b60018160000160016101000a81548160ff02191690831515021790555060008160000160006101000a81548160ff021916908315150217905550505050565b6000809054906101000a900473ffffffffffffffffffffffffffffffffffffffff1681565b600080600080600080613f66600554610e104203612abe565b80955081945082965050505083613f8b57613f82600554611f6c565b90915050809250505b613f9c600554620151804203612abe565b80955081935082965050505083613fc157613fb8600554611f6c565b90915050809150505b808295509550505050509091565b600073ffffffffffffffffffffffffffffffffffffffff16600260009054906101000a900473ffffffffffffffffffffffffffffffffffffffff1673ffffffffffffffffffffffffffffffffffffffff1614614093576040517f08c379a000000000000000000000000000000000000000000000000000000000815260040180806020018281038252600b8152602001807f416c72656164792053657400000000000000000000000000000000000000000081525060200191505060405180910390fd5b80600260006101000a81548173ffffffffffffffffffffffffffffffffffffffff021916908373ffffffffffffffffffffffffffffffffffffffff16021790555080600460006101000a81548173ffffffffffffffffffffffffffffffffffffffff021916908373ffffffffffffffffffffffffffffffffffffffff1602179055507f5c6c85f31e475f047482022539bfe2a3941c15e582053b7420f22e5e8cc5d7f681604051808273ffffffffffffffffffffffffffffffffffffffff1673ffffffffffffffffffffffffffffffffffffffff16815260200191505060405180910390a150565b600080600080600460009054906101000a900473ffffffffffffffffffffffffffffffffffffffff1673ffffffffffffffffffffffffffffffffffffffff1663c4e9e950866040518263ffffffff1660e01b81526004018082815260200191505060206040518083038186803b1580156141f457600080fd5b505afa158015614208573d6000803e3d6000fd5b505050506040513d602081101561421e57600080fd5b810190808051906020019092919050505090506000600460009054906101000a900473ffffffffffffffffffffffffffffffffffffffff1673ffffffffffffffffffffffffffffffffffffffff166373b33318876040518263ffffffff1660e01b81526004018082815260200191505060206040518083038186803b1580156142a657600080fd5b505afa1580156142ba573d6000803e3d6000fd5b505050506040513d60208110156142d057600080fd5b8101908080519060200190929190505050905060008211156144985760008060006142fb8542612abe565b80935081945082955050505082156143d05783820281600460009054906101000a900473ffffffffffffffffffffffffffffffffffffffff1673ffffffffffffffffffffffffffffffffffffffff166367cfa3f860016040518263ffffffff1660e01b81526004018082815260200191505060206040518083038186803b15801561438557600080fd5b505afa158015614399573d6000803e3d6000fd5b505050506040513d60208110156143af57600080fd5b81019080805190602001909291905050509750975097505050505050614559565b600080600460009054906101000a900473ffffffffffffffffffffffffffffffffffffffff1673ffffffffffffffffffffffffffffffffffffffff166367cfa3f860026040518263ffffffff1660e01b81526004018082815260200191505060206040518083038186803b15801561444757600080fd5b505afa15801561445b573d6000803e3d6000fd5b505050506040513d602081101561447157600080fd5b81019080805190602001909291905050508292508191509750975097505050505050614559565b600080600460009054906101000a900473ffffffffffffffffffffffffffffffffffffffff1673ffffffffffffffffffffffffffffffffffffffff166367cfa3f860006040518263ffffffff1660e01b81526004018082815260200191505060206040518083038186803b15801561450f57600080fd5b505afa158015614523573d6000803e3d6000fd5b505050506040513d602081101561453957600080fd5b810190808051906020019092919050505082925081915094509450945050505b9193909250565b6000808284029050600084148061457f57508284828161457c57fe5b04145b61458557fe5b8091505092915050565b60008082848161459b57fe5b0490508091505092915050565b6000828211156145b457fe5b818303905092915050565b604051806101800160405280600015158152602001600015158152602001600073ffffffffffffffffffffffffffffffffffffffff168152602001600073ffffffffffffffffffffffffffffffffffffffff1681526020016000600181111561462457fe5b815260200160008152602001600081526020016000815260200160008152602001600081526020016000815260200160008152509056fe496e73756666696369656e742044414920617070726f76656420666f72207072656d69756d21496e737566666369656e7420616d6f756e7420617070726f76656420666f7220746865206f7074696f6e20746f207472616e736665724f7074696f6e20706f736974696f6e7320616c72656164792066696c6c6564206f72206f7074696f6e206e6f206c6f6e6765722076616c696421496e73756666696369656e74206f7220696e636f7272656e7420616d6f756e74206f662065746865722073656e7420666f7220657363726f77496e737566666369656e742044414920617070726f76656420666f72207472616e7366657221a265627a7a7231582074b2c69b0943cb71db49f4f07e2da3ac38b6dd1bf3eb63d380d4557c7181be8d64736f6c63430005100032",
  "source": "//SPDX-License-Identifier: MIT\r\npragma solidity >=0.4.22 <0.7.0;\r\n\r\nimport \"./daiContracts/UsingDAI.sol\";\r\nimport \"./priceContract/UsingPriceFeed.sol\";\r\n\r\ncontract CallOption is UsingDAI, UsingPriceFeed {\r\n    using SafeMath for uint256;\r\n\r\n    uint256 public uniqueId;\r\n\r\n    address owner;\r\n\r\n    enum POSITION {LONG, SHORT}\r\n\r\n    /*\r\n     * partyL - address for long position\r\n     * partyS - address for short position\r\n     * settlementType - 0: ETH, 1: DAI\r\n     * cost - bid/ask price (10^18 DAI format)\r\n     * quantity - underlying ether amount (Wei)\r\n     * expiry - 48 hours from the time of creation\r\n     * openPosition - Long/Short position which the counterparty would be taking\r\n     */\r\n    struct Option {\r\n        bool isAvailable;\r\n        bool settled;\r\n        address partyL;\r\n        address partyS;\r\n        POSITION openPosition;\r\n        uint256 id;\r\n        uint256 settlementType;\r\n        uint256 initialSellerMargin;\r\n        uint256 strikePrice;\r\n        uint256 cost;\r\n        uint256 quantity;\r\n        uint256 expiry;\r\n    }\r\n\r\n    mapping(uint256 => Option) public idToOption;\r\n    mapping(address => uint256[]) public addressToOptions;\r\n\r\n    constructor(address _daiAddress, address payable _tellorAddress)\r\n        public\r\n        UsingDAI(_daiAddress)\r\n        UsingPriceFeed(_tellorAddress)\r\n    {\r\n        uniqueId = 1; //Initial value\r\n        owner = msg.sender;\r\n    }\r\n\r\n    /*\r\n     * @notice Creates a new call option order for the Long/Buy position\r\n     * @dev Must be preceded by a approve call to DAI token contract, during implementation\r\n     * @dev Short party is initially set to 0 address\r\n     * @param _quantity represents the amount of ether underlying the option\r\n     * @param _cost is representing the bid amount for premium\r\n     */\r\n    function createNewOptionLong(\r\n        uint256 _strikePrice,\r\n        uint256 _cost,\r\n        uint256 _quantity\r\n    ) external {\r\n        bool _costEscrowed;\r\n        _costEscrowed = daiInstance.transferFrom(\r\n            msg.sender,\r\n            address(this),\r\n            _cost\r\n        );\r\n        require(\r\n            _costEscrowed,\r\n            \"Insuffcient amount approved for the option to transfer\"\r\n        );\r\n\r\n        Option memory newOption = Option(\r\n            true,\r\n            false,\r\n            msg.sender,\r\n            address(0),\r\n            POSITION.SHORT,\r\n            uniqueId,\r\n            0,\r\n            0,\r\n            _strikePrice,\r\n            _cost,\r\n            _quantity,\r\n            now + 2 days\r\n        );\r\n\r\n        idToOption[uniqueId] = newOption;\r\n        addressToOptions[msg.sender].push(uniqueId);\r\n\r\n        uniqueId++;\r\n    }\r\n\r\n    /*\r\n     * @notice Creates a new call option order for the Sell/Short position\r\n     * @dev Must be preceded by approve call for type 1\r\n     * @param _quantity represents the amount of ether underlying the option\r\n     * @param _cost represents the ask amount for the premium\r\n     * @param _type represents settle type. 0: ETH, 1: DAI\r\n     */\r\n    function createNewOptionShort(\r\n        uint256 _type,\r\n        uint256 _strikePrice,\r\n        uint256 _cost,\r\n        uint256 _quantity,\r\n        uint256 _initialMargin\r\n    ) external payable {\r\n        require(_type == 0 || _type == 1, \"Invalid settlement type!\");\r\n\r\n        if (_type == 0) {\r\n            require(\r\n                msg.value == _quantity,\r\n                \"Insufficient or incorrent amount of ether sent for escrow\"\r\n            );\r\n        } else {\r\n            uint256 marketVal = _quantity.mul(getMarketValue());\r\n            marketVal = marketVal.div(10**18);\r\n            uint256 requiredMargin = marketVal.sub(marketVal.div(3));\r\n\r\n            require(\r\n                _initialMargin >= requiredMargin,\r\n                \"Insufficient margin provided\"\r\n            );\r\n\r\n            bool _marginEscrowed = daiInstance.transferFrom(\r\n                msg.sender,\r\n                address(this),\r\n                _initialMargin\r\n            );\r\n            require(\r\n                _marginEscrowed,\r\n                \"Insuffcient amount approved for the option to transfer\"\r\n            );\r\n        }\r\n\r\n        Option memory newOption = Option(\r\n            true,\r\n            false,\r\n            address(0),\r\n            msg.sender,\r\n            POSITION.LONG,\r\n            uniqueId,\r\n            _type,\r\n            _initialMargin,\r\n            _strikePrice,\r\n            _cost,\r\n            _quantity,\r\n            now + 2 days\r\n        );\r\n\r\n        idToOption[uniqueId] = newOption;\r\n        addressToOptions[msg.sender].push(uniqueId);\r\n\r\n        uniqueId++;\r\n    }\r\n\r\n    /*\r\n     * @notice Join a shorted order\r\n     * @dev Must be preceded by a approve call to DAI token contract, during implementation\r\n     */\r\n    function buyToOpen(uint256 _id) external isAvailable(idToOption[_id]) {\r\n        //fetch option from mapping\r\n        Option storage option = idToOption[_id];\r\n\r\n        //Check if a valid option is being selected\r\n        require(option.openPosition == POSITION.LONG, \"Wrong option selected!\");\r\n        require(msg.sender != option.partyS, \"You selected your own option!\");\r\n\r\n        bool _premiumSent;\r\n        _premiumSent = daiInstance.transferFrom(\r\n            msg.sender,\r\n            address(this),\r\n            option.cost\r\n        );\r\n        require(_premiumSent, \"Insufficient DAI approved for premium!\");\r\n\r\n        //If premium sent to the contract, transfer rest to the short party\r\n        daiInstance.transfer(option.partyS, option.cost);\r\n\r\n        //Option positions filled\r\n        option.isAvailable = false;\r\n        option.partyL = msg.sender;\r\n\r\n        //Add option to address list\r\n        addressToOptions[msg.sender].push(_id);\r\n    }\r\n\r\n    /*\r\n     *@notice Sell to a Long bid\r\n     *@dev Approve call must precede for type 1 deals\r\n     *@param _initialMargin is the amount of DAI sent for margin. Valid only for type 1 deals.\r\n     */\r\n    function sellToOpen(\r\n        uint256 _id,\r\n        uint256 _type,\r\n        uint256 _initialMargin\r\n    ) external payable isAvailable(idToOption[_id]) {\r\n        //valid type check\r\n        require(_type == 0 || _type == 1, \"Invalid type selected!\");\r\n\r\n        //fetch option from mapping\r\n        Option storage option = idToOption[_id];\r\n\r\n        //Check if a valid option is being selected\r\n        require(\r\n            option.openPosition == POSITION.SHORT,\r\n            \"Wrong option selected!\"\r\n        );\r\n        require(msg.sender != option.partyL, \"You selected your own option!\");\r\n\r\n        if (_type == 0) {\r\n            //ETH settlement: requires ETH equivalent to quantity to be sent\r\n            require(\r\n                msg.value == option.quantity,\r\n                \"Insufficient or incorrent amount of ether sent for escrow\"\r\n            );\r\n        } else {\r\n            //DAI settlement: 2/3 of the market value of the quantity of Eth specified\r\n            uint256 marketVal = option.quantity.mul(getMarketValue());\r\n            marketVal = marketVal.div(10**18);\r\n            uint256 requiredMargin = marketVal.sub(marketVal.div(3));\r\n\r\n            require(\r\n                _initialMargin >= requiredMargin,\r\n                \"Insufficient margin provided\"\r\n            );\r\n\r\n            bool _marginEscrowed = daiInstance.transferFrom(\r\n                msg.sender,\r\n                address(this),\r\n                _initialMargin\r\n            );\r\n            require(\r\n                _marginEscrowed,\r\n                \"Insuffcient amount approved for the option to transfer\"\r\n            );\r\n        }\r\n\r\n        //transfer premium \r\n        daiInstance.transfer(msg.sender, option.cost);\r\n\r\n        //Option positions filled\r\n        option.settlementType = _type;\r\n        option.initialSellerMargin = _initialMargin;\r\n        option.isAvailable = false;\r\n        option.partyS = msg.sender;\r\n\r\n        //Add options to address list\r\n        addressToOptions[msg.sender].push(_id);\r\n    }\r\n\r\n    /*\r\n     *@notice Settles a valid option. ETH/DAI settlement.\r\n     *@dev Must be preceded by approve(strike) calls in the case for type 0\r\n     */\r\n    function settleOption(uint256 _id) external hasNotSettled(idToOption[_id]) {\r\n        Option storage option = idToOption[_id];\r\n\r\n        uint256 marketVal = option.quantity.mul(getMarketValue());\r\n        marketVal = marketVal.div(10**18);\r\n\r\n        require(marketVal > option.strikePrice, \"Lossy close!\");\r\n\r\n        //Calls only by long position\r\n        require(msg.sender == option.partyL, \"Unauthorized call!\");\r\n\r\n        if (option.settlementType == 0) {\r\n            //ETH settlement\r\n            bool _escrowed = daiInstance.transferFrom(\r\n                msg.sender,\r\n                address(this),\r\n                option.strikePrice\r\n            );\r\n            require(_escrowed, \"Insuffcient DAI approved for transfer!\");\r\n\r\n            //transfer ETH\r\n            address(uint160(msg.sender)).transfer(option.quantity);\r\n            //transfer DAI to Seller\r\n            daiInstance.transfer(option.partyS, option.strikePrice);\r\n        } else {\r\n            //DAI settlement\r\n            uint256 profit = marketVal.sub(option.strikePrice);\r\n            daiInstance.transfer(msg.sender, profit);\r\n\r\n            //remaining DAI back to Seller\r\n            uint256 remaining = option.initialSellerMargin.sub(profit);\r\n            daiInstance.transfer(option.partyS, remaining);\r\n        }\r\n\r\n        option.settled = true;\r\n    }\r\n\r\n    /*\r\n     *@notice Closes an expired or unwanted option\r\n     */\r\n    function closeOption(uint256 _id)\r\n        external\r\n        notFilledorExpired(idToOption[_id])\r\n    {\r\n        Option storage option = idToOption[_id];\r\n\r\n        if (option.openPosition == POSITION.LONG) {\r\n            require(msg.sender == option.partyS, \"Not authorised!\");\r\n\r\n            if (option.settlementType == 0) {\r\n                //Return Eth\r\n                address(uint160(msg.sender)).transfer(option.quantity);\r\n            } else {\r\n                daiInstance.transfer(msg.sender, option.initialSellerMargin);\r\n            }\r\n        } else {\r\n            require(msg.sender == option.partyL, \"Not authorised!\");\r\n            daiInstance.transfer(msg.sender, option.cost);\r\n        }\r\n\r\n        option.settled = true;\r\n        option.isAvailable = false;\r\n    }\r\n\r\n    /*\r\n     * @notice Refunds the escrow margin for expired and not settled contracts\r\n     */\r\n    function refundExpired(uint256 _id)\r\n        external\r\n        isFilledandExpired(idToOption[_id])\r\n    {\r\n        Option storage option = idToOption[_id];\r\n\r\n        require(msg.sender == option.partyS, \"Wrong address!\");\r\n\r\n        if (option.settlementType == 0) {\r\n            address(uint160(msg.sender)).transfer(option.quantity);\r\n        } else {\r\n            daiInstance.transfer(msg.sender, option.initialSellerMargin);\r\n        }\r\n\r\n        option.settled = true;\r\n        option.isAvailable = false;\r\n    }\r\n\r\n    /*\r\n     *@notice Utility to send number of contracts associated to a person\r\n     */\r\n    function getOptionsCount(address _address) public view returns (uint256) {\r\n        return addressToOptions[_address].length;\r\n    }\r\n\r\n    modifier isFilledandExpired(Option memory option) {\r\n        require(option.id != 0, \"Invalid option\");\r\n        require(!option.isAvailable, \"Option not filled!\");\r\n        require(!option.settled, \"Already settled!\");\r\n        require(option.expiry < now, \"Not yet expired!\");\r\n        _;\r\n    }\r\n\r\n    modifier notFilledorExpired(Option memory option) {\r\n        require(\r\n            option.isAvailable,\r\n            \"Option positions already filled or option no longer valid!\"\r\n        );\r\n        require(option.id != 0, \"Invalid option id\");\r\n        _;\r\n    }\r\n\r\n    modifier isAvailable(Option memory option) {\r\n        require(\r\n            option.isAvailable,\r\n            \"Option positions already filled or option no longer valid!\"\r\n        );\r\n        require(option.id != 0, \"Invalid option id\");\r\n        require(option.expiry > now, \"Option has expired!\");\r\n        _;\r\n    }\r\n\r\n    modifier hasNotSettled(Option memory option) {\r\n        require(option.id != 0, \"Invalid option id\");\r\n        require(!option.isAvailable, \"Option not yet confirmed!\");\r\n        require(!option.settled, \"Option already settled\");\r\n        require(option.expiry > now, \"Option expired!\");\r\n        _;\r\n    }\r\n}\r\n",
  "sourcePath": "C:\\Users\\AnshuJalan\\Documents\\Chainrunner\\newton\\contracts\\CallOption.sol",
  "compiler": {
    "name": "solc",
    "version": "0.5.16+commit.9c3226ce.Emscripten.clang"
  },
  "schemaVersion": "3.2.0",
  "updatedAt": "2020-06-28T10:05:24.901Z",
  "networkType": "ethereum",
  "devdoc": {
    "methods": {
      "getCurrentValue(uint256)": {
        "details": "Allows the user to get the latest value for the requestId specified",
        "params": {
          "_requestId": "is the requestId to look up the value for"
        },
        "return": "bool true if it is able to retreive a value, the value, and the value's timestamp"
      },
      "getDataBefore(uint256,uint256)": {
        "details": "Allows the user to get the first value for the requestId after the specified timestamp",
        "params": {
          "_requestId": "is the requestId to look up the value for",
          "_timestamp": "after which to search for first verified value"
        },
        "return": "bool true if it is able to retreive a value, the value, and the value's timestamp"
      },
      "valueFor(bytes32)": {
        "details": "Allows the user to get the latest value for the requestId specified using the  ADO specification for the standard inteface for price oracles",
        "params": {
          "_bytesId": "is the ADO standarized bytes32 price/key value pair identifier"
        },
        "return": "the timestamp, outcome or value/ and the status code (for retreived, null, etc...)"
      }
    }
  },
  "userdoc": {
    "methods": {}
  }
}