{
  "contractName": "PutOption",
  "abi": [
    {
      "inputs": [
        {
          "internalType": "address",
          "name": "_daiAddress",
          "type": "address"
        },
        {
          "internalType": "address payable",
          "name": "_tellorAddress",
          "type": "address"
        }
      ],
      "payable": false,
      "stateMutability": "nonpayable",
      "type": "constructor"
    },
    {
      "anonymous": false,
      "inputs": [
        {
          "indexed": false,
          "internalType": "address",
          "name": "_descriptorSet",
          "type": "address"
        }
      ],
      "name": "NewDescriptorSet",
      "type": "event"
    },
    {
      "constant": true,
      "inputs": [
        {
          "internalType": "address",
          "name": "",
          "type": "address"
        },
        {
          "internalType": "uint256",
          "name": "",
          "type": "uint256"
        }
      ],
      "name": "addressToOptions",
      "outputs": [
        {
          "internalType": "uint256",
          "name": "",
          "type": "uint256"
        }
      ],
      "payable": false,
      "stateMutability": "view",
      "type": "function"
    },
    {
      "constant": true,
      "inputs": [],
      "name": "daiInstance",
      "outputs": [
        {
          "internalType": "contract IERC20",
          "name": "",
          "type": "address"
        }
      ],
      "payable": false,
      "stateMutability": "view",
      "type": "function"
    },
    {
      "constant": true,
      "inputs": [
        {
          "internalType": "uint256",
          "name": "_requestId",
          "type": "uint256"
        }
      ],
      "name": "getCurrentValue",
      "outputs": [
        {
          "internalType": "bool",
          "name": "ifRetrieve",
          "type": "bool"
        },
        {
          "internalType": "uint256",
          "name": "value",
          "type": "uint256"
        },
        {
          "internalType": "uint256",
          "name": "_timestampRetrieved",
          "type": "uint256"
        }
      ],
      "payable": false,
      "stateMutability": "view",
      "type": "function"
    },
    {
      "constant": true,
      "inputs": [],
      "name": "getDaiRange",
      "outputs": [
        {
          "internalType": "uint256",
          "name": "",
          "type": "uint256"
        },
        {
          "internalType": "uint256",
          "name": "",
          "type": "uint256"
        }
      ],
      "payable": false,
      "stateMutability": "view",
      "type": "function"
    },
    {
      "constant": true,
      "inputs": [
        {
          "internalType": "uint256",
          "name": "_requestId",
          "type": "uint256"
        },
        {
          "internalType": "uint256",
          "name": "_timestamp",
          "type": "uint256"
        }
      ],
      "name": "getDataBefore",
      "outputs": [
        {
          "internalType": "bool",
          "name": "_ifRetrieve",
          "type": "bool"
        },
        {
          "internalType": "uint256",
          "name": "_value",
          "type": "uint256"
        },
        {
          "internalType": "uint256",
          "name": "_timestampRetrieved",
          "type": "uint256"
        }
      ],
      "payable": false,
      "stateMutability": "view",
      "type": "function"
    },
    {
      "constant": true,
      "inputs": [],
      "name": "getEthRange",
      "outputs": [
        {
          "internalType": "uint256",
          "name": "",
          "type": "uint256"
        },
        {
          "internalType": "uint256",
          "name": "",
          "type": "uint256"
        }
      ],
      "payable": false,
      "stateMutability": "view",
      "type": "function"
    },
    {
      "constant": true,
      "inputs": [],
      "name": "getMarketValue",
      "outputs": [
        {
          "internalType": "uint256",
          "name": "",
          "type": "uint256"
        }
      ],
      "payable": false,
      "stateMutability": "view",
      "type": "function"
    },
    {
      "constant": true,
      "inputs": [
        {
          "internalType": "uint256",
          "name": "",
          "type": "uint256"
        }
      ],
      "name": "idToOption",
      "outputs": [
        {
          "internalType": "bool",
          "name": "isAvailable",
          "type": "bool"
        },
        {
          "internalType": "bool",
          "name": "settled",
          "type": "bool"
        },
        {
          "internalType": "address",
          "name": "partyL",
          "type": "address"
        },
        {
          "internalType": "address",
          "name": "partyS",
          "type": "address"
        },
        {
          "internalType": "enum PutOption.POSITION",
          "name": "openPosition",
          "type": "uint8"
        },
        {
          "internalType": "uint256",
          "name": "id",
          "type": "uint256"
        },
        {
          "internalType": "uint256",
          "name": "settlementType",
          "type": "uint256"
        },
        {
          "internalType": "uint256",
          "name": "initialSellerMargin",
          "type": "uint256"
        },
        {
          "internalType": "uint256",
          "name": "strikePrice",
          "type": "uint256"
        },
        {
          "internalType": "uint256",
          "name": "cost",
          "type": "uint256"
        },
        {
          "internalType": "uint256",
          "name": "quantity",
          "type": "uint256"
        },
        {
          "internalType": "uint256",
          "name": "expiry",
          "type": "uint256"
        }
      ],
      "payable": false,
      "stateMutability": "view",
      "type": "function"
    },
    {
      "constant": true,
      "inputs": [],
      "name": "oracleIDDescriptionsAddress",
      "outputs": [
        {
          "internalType": "address",
          "name": "",
          "type": "address"
        }
      ],
      "payable": false,
      "stateMutability": "view",
      "type": "function"
    },
    {
      "constant": false,
      "inputs": [
        {
          "internalType": "address",
          "name": "_oracleDescriptors",
          "type": "address"
        }
      ],
      "name": "setOracleIDDescriptors",
      "outputs": [],
      "payable": false,
      "stateMutability": "nonpayable",
      "type": "function"
    },
    {
      "constant": true,
      "inputs": [],
      "name": "tellorStorageAddress",
      "outputs": [
        {
          "internalType": "address payable",
          "name": "",
          "type": "address"
        }
      ],
      "payable": false,
      "stateMutability": "view",
      "type": "function"
    },
    {
      "constant": true,
      "inputs": [],
      "name": "uniqueId",
      "outputs": [
        {
          "internalType": "uint256",
          "name": "",
          "type": "uint256"
        }
      ],
      "payable": false,
      "stateMutability": "view",
      "type": "function"
    },
    {
      "constant": true,
      "inputs": [
        {
          "internalType": "bytes32",
          "name": "_bytesId",
          "type": "bytes32"
        }
      ],
      "name": "valueFor",
      "outputs": [
        {
          "internalType": "int256",
          "name": "value",
          "type": "int256"
        },
        {
          "internalType": "uint256",
          "name": "timestamp",
          "type": "uint256"
        },
        {
          "internalType": "uint256",
          "name": "status",
          "type": "uint256"
        }
      ],
      "payable": false,
      "stateMutability": "view",
      "type": "function"
    },
    {
      "constant": false,
      "inputs": [
        {
          "internalType": "uint256",
          "name": "_type",
          "type": "uint256"
        },
        {
          "internalType": "uint256",
          "name": "_strikePrice",
          "type": "uint256"
        },
        {
          "internalType": "uint256",
          "name": "_cost",
          "type": "uint256"
        },
        {
          "internalType": "uint256",
          "name": "_quantity",
          "type": "uint256"
        }
      ],
      "name": "createNewOptionLong",
      "outputs": [],
      "payable": false,
      "stateMutability": "nonpayable",
      "type": "function"
    },
    {
      "constant": false,
      "inputs": [
        {
          "internalType": "uint256",
          "name": "_strikePrice",
          "type": "uint256"
        },
        {
          "internalType": "uint256",
          "name": "_cost",
          "type": "uint256"
        },
        {
          "internalType": "uint256",
          "name": "_quantity",
          "type": "uint256"
        },
        {
          "internalType": "uint256",
          "name": "_initialMargin",
          "type": "uint256"
        }
      ],
      "name": "createNewOptionShort",
      "outputs": [],
      "payable": false,
      "stateMutability": "nonpayable",
      "type": "function"
    },
    {
      "constant": false,
      "inputs": [
        {
          "internalType": "uint256",
          "name": "_id",
          "type": "uint256"
        },
        {
          "internalType": "uint256",
          "name": "_type",
          "type": "uint256"
        }
      ],
      "name": "buyToOpen",
      "outputs": [],
      "payable": false,
      "stateMutability": "nonpayable",
      "type": "function"
    },
    {
      "constant": false,
      "inputs": [
        {
          "internalType": "uint256",
          "name": "_id",
          "type": "uint256"
        },
        {
          "internalType": "uint256",
          "name": "_initialMargin",
          "type": "uint256"
        }
      ],
      "name": "sellToOpen",
      "outputs": [],
      "payable": false,
      "stateMutability": "nonpayable",
      "type": "function"
    },
    {
      "constant": false,
      "inputs": [
        {
          "internalType": "uint256",
          "name": "_id",
          "type": "uint256"
        }
      ],
      "name": "settleOption",
      "outputs": [],
      "payable": true,
      "stateMutability": "payable",
      "type": "function"
    },
    {
      "constant": false,
      "inputs": [
        {
          "internalType": "uint256",
          "name": "_id",
          "type": "uint256"
        }
      ],
      "name": "closeOption",
      "outputs": [],
      "payable": false,
      "stateMutability": "nonpayable",
      "type": "function"
    },
    {
      "constant": false,
      "inputs": [
        {
          "internalType": "uint256",
          "name": "_id",
          "type": "uint256"
        }
      ],
      "name": "refundExpired",
      "outputs": [],
      "payable": false,
      "stateMutability": "nonpayable",
      "type": "function"
    },
    {
      "constant": true,
      "inputs": [
        {
          "internalType": "address",
          "name": "_address",
          "type": "address"
        }
      ],
      "name": "getOptionsCount",
      "outputs": [
        {
          "internalType": "uint256",
          "name": "",
          "type": "uint256"
        }
      ],
      "payable": false,
      "stateMutability": "view",
      "type": "function"
    }
  ],
  "bytecode": "0x608060405234801561001057600080fd5b50604051620044aa380380620044aa8339818101604052604081101561003557600080fd5b810190808051906020019092919080519060200190929190505050808083806000806101000a81548173ffffffffffffffffffffffffffffffffffffffff021916908373ffffffffffffffffffffffffffffffffffffffff1602179055505080600160006101000a81548173ffffffffffffffffffffffffffffffffffffffff021916908373ffffffffffffffffffffffffffffffffffffffff160217905550600160009054906101000a900473ffffffffffffffffffffffffffffffffffffffff16600360006101000a81548173ffffffffffffffffffffffffffffffffffffffff021916908373ffffffffffffffffffffffffffffffffffffffff160217905550506001600581905550602760068190555050600160078190555033600860006101000a81548173ffffffffffffffffffffffffffffffffffffffff021916908373ffffffffffffffffffffffffffffffffffffffff160217905550505061430580620001a56000396000f3fe60806040526004361061012a5760003560e01c806366b44611116100ab578063ae4c7aa11161006f578063ae4c7aa11461066f578063b4c42f37146106aa578063b8255d4514610701578063bb97f31d14610733578063f78eea8314610784578063f9384f8f146107e15761012a565b806366b44611146104d557806377d3f0621461054057806383b6fa98146105a557806386ac4189146105d3578063a8020973146106185761012a565b8063526366b4116100f2578063526366b414610360578063557a7a36146103b75780635bcacc7314610410578063629c52a91461047f57806362befb1e146104aa5761012a565b806310682ed21461012f5780631402b17a146102395780633fcad9641461027457806348f28219146102d55780634efe94c614610307575b600080fd5b34801561013b57600080fd5b506101686004803603602081101561015257600080fd5b8101908080359060200190929190505050610826565b604051808d1515151581526020018c1515151581526020018b73ffffffffffffffffffffffffffffffffffffffff1673ffffffffffffffffffffffffffffffffffffffff1681526020018a73ffffffffffffffffffffffffffffffffffffffff1673ffffffffffffffffffffffffffffffffffffffff1681526020018960018111156101f057fe5b60ff1681526020018881526020018781526020018681526020018581526020018481526020018381526020018281526020019c5050505050505050505050505060405180910390f35b34801561024557600080fd5b506102726004803603602081101561025c57600080fd5b81019080803590602001909291905050506108ed565b005b34801561028057600080fd5b506102ad6004803603602081101561029757600080fd5b8101908080359060200190929190505050610e49565b6040518084151515158152602001838152602001828152602001935050505060405180910390f35b3480156102e157600080fd5b506102ea610e65565b604051808381526020018281526020019250505060405180910390f35b34801561031357600080fd5b5061035e6004803603608081101561032a57600080fd5b8101908080359060200190929190803590602001909291908035906020019092919080359060200190929190505050610ee7565b005b34801561036c57600080fd5b50610375611350565b604051808273ffffffffffffffffffffffffffffffffffffffff1673ffffffffffffffffffffffffffffffffffffffff16815260200191505060405180910390f35b3480156103c357600080fd5b5061040e600480360360808110156103da57600080fd5b8101908080359060200190929190803590602001909291908035906020019092919080359060200190929190505050611376565b005b34801561041c57600080fd5b506104696004803603604081101561043357600080fd5b81019080803573ffffffffffffffffffffffffffffffffffffffff16906020019092919080359060200190929190505050611768565b6040518082815260200191505060405180910390f35b34801561048b57600080fd5b50610494611796565b6040518082815260200191505060405180910390f35b3480156104b657600080fd5b506104bf61179c565b6040518082815260200191505060405180910390f35b3480156104e157600080fd5b50610518600480360360408110156104f857600080fd5b81019080803590602001909291908035906020019092919050505061184c565b6040518084151515158152602001838152602001828152602001935050505060405180910390f35b34801561054c57600080fd5b5061058f6004803603602081101561056357600080fd5b81019080803573ffffffffffffffffffffffffffffffffffffffff169060200190929190505050611ba3565b6040518082815260200191505060405180910390f35b6105d1600480360360208110156105bb57600080fd5b8101908080359060200190929190505050611bef565b005b3480156105df57600080fd5b50610616600480360360408110156105f657600080fd5b81019080803590602001909291908035906020019092919050505061250d565b005b34801561062457600080fd5b5061062d612ca4565b604051808273ffffffffffffffffffffffffffffffffffffffff1673ffffffffffffffffffffffffffffffffffffffff16815260200191505060405180910390f35b34801561067b57600080fd5b506106a86004803603602081101561069257600080fd5b8101908080359060200190929190505050612cca565b005b3480156106b657600080fd5b506106bf6132f9565b604051808273ffffffffffffffffffffffffffffffffffffffff1673ffffffffffffffffffffffffffffffffffffffff16815260200191505060405180910390f35b34801561070d57600080fd5b5061071661331e565b604051808381526020018281526020019250505060405180910390f35b34801561073f57600080fd5b506107826004803603602081101561075657600080fd5b81019080803573ffffffffffffffffffffffffffffffffffffffff1690602001909291905050506133a0565b005b34801561079057600080fd5b506107bd600480360360208110156107a757600080fd5b810190808035906020019092919050505061354c565b60405180848152602001838152602001828152602001935050505060405180910390f35b3480156107ed57600080fd5b506108246004803603604081101561080457600080fd5b810190808035906020019092919080359060200190929190505050613931565b005b60096020528060005260406000206000915090508060000160009054906101000a900460ff16908060000160019054906101000a900460ff16908060000160029054906101000a900473ffffffffffffffffffffffffffffffffffffffff16908060010160009054906101000a900473ffffffffffffffffffffffffffffffffffffffff16908060010160149054906101000a900460ff1690806002015490806003015490806004015490806005015490806006015490806007015490806008015490508c565b60096000828152602001908152602001600020604051806101800160405290816000820160009054906101000a900460ff161515151581526020016000820160019054906101000a900460ff161515151581526020016000820160029054906101000a900473ffffffffffffffffffffffffffffffffffffffff1673ffffffffffffffffffffffffffffffffffffffff1673ffffffffffffffffffffffffffffffffffffffff1681526020016001820160009054906101000a900473ffffffffffffffffffffffffffffffffffffffff1673ffffffffffffffffffffffffffffffffffffffff1673ffffffffffffffffffffffffffffffffffffffff1681526020016001820160149054906101000a900460ff166001811115610a0c57fe5b6001811115610a1757fe5b815260200160028201548152602001600382015481526020016004820154815260200160058201548152602001600682015481526020016007820154815260200160088201548152505060008160a001511415610adc576040517f08c379a000000000000000000000000000000000000000000000000000000000815260040180806020018281038252600e8152602001807f496e76616c6964206f7074696f6e00000000000000000000000000000000000081525060200191505060405180910390fd5b806000015115610b54576040517f08c379a00000000000000000000000000000000000000000000000000000000081526004018080602001828103825260128152602001807f4f7074696f6e206e6f742066696c6c656421000000000000000000000000000081525060200191505060405180910390fd5b806020015115610bcc576040517f08c379a00000000000000000000000000000000000000000000000000000000081526004018080602001828103825260108152602001807f416c726561647920736574746c6564210000000000000000000000000000000081525060200191505060405180910390fd5b4281610160015110610c46576040517f08c379a00000000000000000000000000000000000000000000000000000000081526004018080602001828103825260108152602001807f4e6f74207965742065787069726564210000000000000000000000000000000081525060200191505060405180910390fd5b60006009600084815260200190815260200160002090508060010160009054906101000a900473ffffffffffffffffffffffffffffffffffffffff1673ffffffffffffffffffffffffffffffffffffffff163373ffffffffffffffffffffffffffffffffffffffff1614610d22576040517f08c379a000000000000000000000000000000000000000000000000000000000815260040180806020018281038252600e8152602001807f57726f6e6720616464726573732100000000000000000000000000000000000081525060200191505060405180910390fd5b6000809054906101000a900473ffffffffffffffffffffffffffffffffffffffff1673ffffffffffffffffffffffffffffffffffffffff1663a9059cbb3383600401546040518363ffffffff1660e01b8152600401808373ffffffffffffffffffffffffffffffffffffffff1673ffffffffffffffffffffffffffffffffffffffff16815260200182815260200192505050602060405180830381600087803b158015610dce57600080fd5b505af1158015610de2573d6000803e3d6000fd5b505050506040513d6020811015610df857600080fd5b81019080805190602001909291905050505060018160000160016101000a81548160ff02191690831515021790555060008160000160006101000a81548160ff021916908315150217905550505050565b6000806000610e58844261184c565b9250925092509193909250565b600080600080600080610e7e600654610e10420361184c565b80955081945082965050505083610ea357610e9a600654610e49565b90915050809250505b610eb460065462015180420361184c565b80955081935082965050505083610ed957610ed0600654610e49565b90915050809150505b808295509550505050509091565b83811015610f5d576040517f08c379a000000000000000000000000000000000000000000000000000000000815260040180806020018281038252601c8152602001807f496e73756666696369656e74206d617267696e2070726f76696465640000000081525060200191505060405180910390fd5b60008060009054906101000a900473ffffffffffffffffffffffffffffffffffffffff1673ffffffffffffffffffffffffffffffffffffffff166323b872dd3330856040518463ffffffff1660e01b8152600401808473ffffffffffffffffffffffffffffffffffffffff1673ffffffffffffffffffffffffffffffffffffffff1681526020018373ffffffffffffffffffffffffffffffffffffffff1673ffffffffffffffffffffffffffffffffffffffff1681526020018281526020019350505050602060405180830381600087803b15801561103b57600080fd5b505af115801561104f573d6000803e3d6000fd5b505050506040513d602081101561106557600080fd5b81019080805190602001909291905050509050806110ce576040517f08c379a000000000000000000000000000000000000000000000000000000000815260040180806020018281038252603681526020018061423b6036913960400191505060405180910390fd5b6110d6614178565b604051806101800160405280600115158152602001600015158152602001600073ffffffffffffffffffffffffffffffffffffffff1681526020013373ffffffffffffffffffffffffffffffffffffffff1681526020016000600181111561113a57fe5b81526020016007548152602001600081526020018481526020018781526020018681526020018581526020016202a300420181525090508060096000600754815260200190815260200160002060008201518160000160006101000a81548160ff02191690831515021790555060208201518160000160016101000a81548160ff02191690831515021790555060408201518160000160026101000a81548173ffffffffffffffffffffffffffffffffffffffff021916908373ffffffffffffffffffffffffffffffffffffffff16021790555060608201518160010160006101000a81548173ffffffffffffffffffffffffffffffffffffffff021916908373ffffffffffffffffffffffffffffffffffffffff16021790555060808201518160010160146101000a81548160ff0219169083600181111561127957fe5b021790555060a0820151816002015560c0820151816003015560e082015181600401556101008201518160050155610120820151816006015561014082015181600701556101608201518160080155905050600a60003373ffffffffffffffffffffffffffffffffffffffff1673ffffffffffffffffffffffffffffffffffffffff1681526020019081526020016000206007549080600181540180825580915050906001820390600052602060002001600090919290919091505550600760008154809291906001019190505550505050505050565b600260009054906101000a900473ffffffffffffffffffffffffffffffffffffffff1681565b60008060009054906101000a900473ffffffffffffffffffffffffffffffffffffffff1673ffffffffffffffffffffffffffffffffffffffff166323b872dd3330866040518463ffffffff1660e01b8152600401808473ffffffffffffffffffffffffffffffffffffffff1673ffffffffffffffffffffffffffffffffffffffff1681526020018373ffffffffffffffffffffffffffffffffffffffff1673ffffffffffffffffffffffffffffffffffffffff1681526020018281526020019350505050602060405180830381600087803b15801561145457600080fd5b505af1158015611468573d6000803e3d6000fd5b505050506040513d602081101561147e57600080fd5b81019080805190602001909291905050509050806114e7576040517f08c379a000000000000000000000000000000000000000000000000000000000815260040180806020018281038252603681526020018061423b6036913960400191505060405180910390fd5b6114ef614178565b6040518061018001604052806001151581526020016000151581526020013373ffffffffffffffffffffffffffffffffffffffff168152602001600073ffffffffffffffffffffffffffffffffffffffff16815260200160018081111561155257fe5b81526020016007548152602001878152602001600081526020018681526020018581526020018481526020016202a300420181525090508060096000600754815260200190815260200160002060008201518160000160006101000a81548160ff02191690831515021790555060208201518160000160016101000a81548160ff02191690831515021790555060408201518160000160026101000a81548173ffffffffffffffffffffffffffffffffffffffff021916908373ffffffffffffffffffffffffffffffffffffffff16021790555060608201518160010160006101000a81548173ffffffffffffffffffffffffffffffffffffffff021916908373ffffffffffffffffffffffffffffffffffffffff16021790555060808201518160010160146101000a81548160ff0219169083600181111561169157fe5b021790555060a0820151816002015560c0820151816003015560e082015181600401556101008201518160050155610120820151816006015561014082015181600701556101608201518160080155905050600a60003373ffffffffffffffffffffffffffffffffffffffff1673ffffffffffffffffffffffffffffffffffffffff1681526020019081526020016000206007549080600181540180825580915050906001820390600052602060002001600090919290919091505550600760008154809291906001019190505550505050505050565b600a602052816000526040600020818154811061178157fe5b90600052602060002001600091509150505481565b60075481565b6000806000806000806117b5600554610e10420361184c565b809350819750829450505050816117da576117d1600554610e49565b90915050809550505b6117ea600654610e10420361184c565b8093508196508294505050508161180f57611806600654610e49565b90915050809450505b61182a670de0b6b3a76400008661411990919063ffffffff16565b945061183f848661414890919063ffffffff16565b9250829550505050505090565b600080600080600360009054906101000a900473ffffffffffffffffffffffffffffffffffffffff1673ffffffffffffffffffffffffffffffffffffffff166346eee1c4876040518263ffffffff1660e01b81526004018082815260200191505060206040518083038186803b1580156118c557600080fd5b505afa1580156118d9573d6000803e3d6000fd5b505050506040513d60208110156118ef57600080fd5b810190808051906020019092919050505090506000811115611b895760008190505b6000811115611b87576000600360009054906101000a900473ffffffffffffffffffffffffffffffffffffffff1673ffffffffffffffffffffffffffffffffffffffff166377fbb66389600185036040518363ffffffff1660e01b8152600401808381526020018281526020019250505060206040518083038186803b15801561199a57600080fd5b505afa1580156119ae573d6000803e3d6000fd5b505050506040513d60208110156119c457600080fd5b810190808051906020019092919050505090506000811180156119e75750868111155b8015611aac575060001515600360009054906101000a900473ffffffffffffffffffffffffffffffffffffffff1673ffffffffffffffffffffffffffffffffffffffff16633df0777b8a846040518363ffffffff1660e01b8152600401808381526020018281526020019250505060206040518083038186803b158015611a6d57600080fd5b505afa158015611a81573d6000803e3d6000fd5b505050506040513d6020811015611a9757600080fd5b81019080805190602001909291905050501515145b15611b78576001600360009054906101000a900473ffffffffffffffffffffffffffffffffffffffff1673ffffffffffffffffffffffffffffffffffffffff166393fa49158a846040518363ffffffff1660e01b8152600401808381526020018281526020019250505060206040518083038186803b158015611b2e57600080fd5b505afa158015611b42573d6000803e3d6000fd5b505050506040513d6020811015611b5857600080fd5b810190808051906020019092919050505082955095509550505050611b9c565b50808060019003915050611911565b505b6000806000819150809050935093509350505b9250925092565b6000600a60008373ffffffffffffffffffffffffffffffffffffffff1673ffffffffffffffffffffffffffffffffffffffff168152602001908152602001600020805490509050919050565b60096000828152602001908152602001600020604051806101800160405290816000820160009054906101000a900460ff161515151581526020016000820160019054906101000a900460ff161515151581526020016000820160029054906101000a900473ffffffffffffffffffffffffffffffffffffffff1673ffffffffffffffffffffffffffffffffffffffff1673ffffffffffffffffffffffffffffffffffffffff1681526020016001820160009054906101000a900473ffffffffffffffffffffffffffffffffffffffff1673ffffffffffffffffffffffffffffffffffffffff1673ffffffffffffffffffffffffffffffffffffffff1681526020016001820160149054906101000a900460ff166001811115611d0e57fe5b6001811115611d1957fe5b815260200160028201548152602001600382015481526020016004820154815260200160058201548152602001600682015481526020016007820154815260200160088201548152505060008160a001511415611dde576040517f08c379a00000000000000000000000000000000000000000000000000000000081526004018080602001828103825260118152602001807f496e76616c6964206f7074696f6e20696400000000000000000000000000000081525060200191505060405180910390fd5b806000015115611e56576040517f08c379a00000000000000000000000000000000000000000000000000000000081526004018080602001828103825260198152602001807f4f7074696f6e206e6f742079657420636f6e6669726d6564210000000000000081525060200191505060405180910390fd5b806020015115611ece576040517f08c379a00000000000000000000000000000000000000000000000000000000081526004018080602001828103825260168152602001807f4f7074696f6e20616c726561647920736574746c65640000000000000000000081525060200191505060405180910390fd5b4281610160015111611f48576040517f08c379a00000000000000000000000000000000000000000000000000000000081526004018080602001828103825260138152602001807f4f7074696f6e206861732065787069726564210000000000000000000000000081525060200191505060405180910390fd5b60006009600084815260200190815260200160002090506000611f7f611f6c61179c565b836007015461411990919063ffffffff16565b9050611f9c670de0b6b3a76400008261414890919063ffffffff16565b905080826005015411612017576040517f08c379a000000000000000000000000000000000000000000000000000000000815260040180806020018281038252600c8152602001807f4c6f73737920636c6f736521000000000000000000000000000000000000000081525060200191505060405180910390fd5b8160000160029054906101000a900473ffffffffffffffffffffffffffffffffffffffff1673ffffffffffffffffffffffffffffffffffffffff163373ffffffffffffffffffffffffffffffffffffffff16146120dc576040517f08c379a00000000000000000000000000000000000000000000000000000000081526004018080602001828103825260128152602001807f556e617574686f72697a65642063616c6c21000000000000000000000000000081525060200191505060405180910390fd5b6000826003015414156122c55781600701543414612145576040517f08c379a00000000000000000000000000000000000000000000000000000000081526004018080602001828103825260268152602001806142ab6026913960400191505060405180910390fd5b8160010160009054906101000a900473ffffffffffffffffffffffffffffffffffffffff1673ffffffffffffffffffffffffffffffffffffffff166108fc83600701549081150290604051600060405180830381858888f193505050501580156121b3573d6000803e3d6000fd5b506000809054906101000a900473ffffffffffffffffffffffffffffffffffffffff1673ffffffffffffffffffffffffffffffffffffffff1663a9059cbb8360000160029054906101000a900473ffffffffffffffffffffffffffffffffffffffff1684600501546040518363ffffffff1660e01b8152600401808373ffffffffffffffffffffffffffffffffffffffff1673ffffffffffffffffffffffffffffffffffffffff16815260200182815260200192505050602060405180830381600087803b15801561228457600080fd5b505af1158015612298573d6000803e3d6000fd5b505050506040513d60208110156122ae57600080fd5b8101908080519060200190929190505050506124ea565b60006122de82846005015461416190919063ffffffff16565b90506000809054906101000a900473ffffffffffffffffffffffffffffffffffffffff1673ffffffffffffffffffffffffffffffffffffffff1663a9059cbb33836040518363ffffffff1660e01b8152600401808373ffffffffffffffffffffffffffffffffffffffff1673ffffffffffffffffffffffffffffffffffffffff16815260200182815260200192505050602060405180830381600087803b15801561238857600080fd5b505af115801561239c573d6000803e3d6000fd5b505050506040513d60208110156123b257600080fd5b81019080805190602001909291905050505060006123dd82856004015461416190919063ffffffff16565b90506000809054906101000a900473ffffffffffffffffffffffffffffffffffffffff1673ffffffffffffffffffffffffffffffffffffffff1663a9059cbb8560010160009054906101000a900473ffffffffffffffffffffffffffffffffffffffff16836040518363ffffffff1660e01b8152600401808373ffffffffffffffffffffffffffffffffffffffff1673ffffffffffffffffffffffffffffffffffffffff16815260200182815260200192505050602060405180830381600087803b1580156124ab57600080fd5b505af11580156124bf573d6000803e3d6000fd5b505050506040513d60208110156124d557600080fd5b81019080805190602001909291905050505050505b60018260000160016101000a81548160ff02191690831515021790555050505050565b60096000838152602001908152602001600020604051806101800160405290816000820160009054906101000a900460ff161515151581526020016000820160019054906101000a900460ff161515151581526020016000820160029054906101000a900473ffffffffffffffffffffffffffffffffffffffff1673ffffffffffffffffffffffffffffffffffffffff1673ffffffffffffffffffffffffffffffffffffffff1681526020016001820160009054906101000a900473ffffffffffffffffffffffffffffffffffffffff1673ffffffffffffffffffffffffffffffffffffffff1673ffffffffffffffffffffffffffffffffffffffff1681526020016001820160149054906101000a900460ff16600181111561262c57fe5b600181111561263757fe5b815260200160028201548152602001600382015481526020016004820154815260200160058201548152602001600682015481526020016007820154815260200160088201548152505080600001516126db576040517f08c379a000000000000000000000000000000000000000000000000000000000815260040180806020018281038252603a815260200180614271603a913960400191505060405180910390fd5b60008160a001511415612756576040517f08c379a00000000000000000000000000000000000000000000000000000000081526004018080602001828103825260118152602001807f496e76616c6964206f7074696f6e20696400000000000000000000000000000081525060200191505060405180910390fd5b42816101600151116127d0576040517f08c379a00000000000000000000000000000000000000000000000000000000081526004018080602001828103825260138152602001807f4f7074696f6e206861732065787069726564210000000000000000000000000081525060200191505060405180910390fd5b6000600960008581526020019081526020016000209050600060018111156127f457fe5b8160010160149054906101000a900460ff16600181111561281157fe5b14612884576040517f08c379a00000000000000000000000000000000000000000000000000000000081526004018080602001828103825260168152602001807f57726f6e67206f7074696f6e2073656c6563746564210000000000000000000081525060200191505060405180910390fd5b8060010160009054906101000a900473ffffffffffffffffffffffffffffffffffffffff1673ffffffffffffffffffffffffffffffffffffffff163373ffffffffffffffffffffffffffffffffffffffff16141561294a576040517f08c379a000000000000000000000000000000000000000000000000000000000815260040180806020018281038252601d8152602001807f596f752073656c656374656420796f7572206f776e206f7074696f6e2100000081525060200191505060405180910390fd5b60008060009054906101000a900473ffffffffffffffffffffffffffffffffffffffff1673ffffffffffffffffffffffffffffffffffffffff166323b872dd333085600601546040518463ffffffff1660e01b8152600401808473ffffffffffffffffffffffffffffffffffffffff1673ffffffffffffffffffffffffffffffffffffffff1681526020018373ffffffffffffffffffffffffffffffffffffffff1673ffffffffffffffffffffffffffffffffffffffff1681526020018281526020019350505050602060405180830381600087803b158015612a2c57600080fd5b505af1158015612a40573d6000803e3d6000fd5b505050506040513d6020811015612a5657600080fd5b8101908080519060200190929190505050905080612abf576040517f08c379a00000000000000000000000000000000000000000000000000000000081526004018080602001828103825260268152602001806142156026913960400191505060405180910390fd5b6000809054906101000a900473ffffffffffffffffffffffffffffffffffffffff1673ffffffffffffffffffffffffffffffffffffffff1663a9059cbb8360010160009054906101000a900473ffffffffffffffffffffffffffffffffffffffff1684600601546040518363ffffffff1660e01b8152600401808373ffffffffffffffffffffffffffffffffffffffff1673ffffffffffffffffffffffffffffffffffffffff16815260200182815260200192505050602060405180830381600087803b158015612b8f57600080fd5b505af1158015612ba3573d6000803e3d6000fd5b505050506040513d6020811015612bb957600080fd5b81019080805190602001909291905050505060008260000160006101000a81548160ff021916908315150217905550338260000160026101000a81548173ffffffffffffffffffffffffffffffffffffffff021916908373ffffffffffffffffffffffffffffffffffffffff160217905550838260030181905550600a60003373ffffffffffffffffffffffffffffffffffffffff1673ffffffffffffffffffffffffffffffffffffffff1681526020019081526020016000208590806001815401808255809150509060018203906000526020600020016000909192909190915055505050505050565b600160009054906101000a900473ffffffffffffffffffffffffffffffffffffffff1681565b60096000828152602001908152602001600020604051806101800160405290816000820160009054906101000a900460ff161515151581526020016000820160019054906101000a900460ff161515151581526020016000820160029054906101000a900473ffffffffffffffffffffffffffffffffffffffff1673ffffffffffffffffffffffffffffffffffffffff1673ffffffffffffffffffffffffffffffffffffffff1681526020016001820160009054906101000a900473ffffffffffffffffffffffffffffffffffffffff1673ffffffffffffffffffffffffffffffffffffffff1673ffffffffffffffffffffffffffffffffffffffff1681526020016001820160149054906101000a900460ff166001811115612de957fe5b6001811115612df457fe5b81526020016002820154815260200160038201548152602001600482015481526020016005820154815260200160068201548152602001600782015481526020016008820154815250508060000151612e98576040517f08c379a000000000000000000000000000000000000000000000000000000000815260040180806020018281038252603a815260200180614271603a913960400191505060405180910390fd5b60008160a001511415612f13576040517f08c379a00000000000000000000000000000000000000000000000000000000081526004018080602001828103825260118152602001807f496e76616c6964206f7074696f6e20696400000000000000000000000000000081525060200191505060405180910390fd5b600060096000848152602001908152602001600020905060006001811115612f3757fe5b8160010160149054906101000a900460ff166001811115612f5457fe5b141561310c578060010160009054906101000a900473ffffffffffffffffffffffffffffffffffffffff1673ffffffffffffffffffffffffffffffffffffffff163373ffffffffffffffffffffffffffffffffffffffff161461301f576040517f08c379a000000000000000000000000000000000000000000000000000000000815260040180806020018281038252600f8152602001807f4e6f7420617574686f726973656421000000000000000000000000000000000081525060200191505060405180910390fd5b6000809054906101000a900473ffffffffffffffffffffffffffffffffffffffff1673ffffffffffffffffffffffffffffffffffffffff1663a9059cbb3383600401546040518363ffffffff1660e01b8152600401808373ffffffffffffffffffffffffffffffffffffffff1673ffffffffffffffffffffffffffffffffffffffff16815260200182815260200192505050602060405180830381600087803b1580156130cb57600080fd5b505af11580156130df573d6000803e3d6000fd5b505050506040513d60208110156130f557600080fd5b8101908080519060200190929190505050506132ba565b8060000160029054906101000a900473ffffffffffffffffffffffffffffffffffffffff1673ffffffffffffffffffffffffffffffffffffffff163373ffffffffffffffffffffffffffffffffffffffff16146131d1576040517f08c379a000000000000000000000000000000000000000000000000000000000815260040180806020018281038252600f8152602001807f4e6f7420617574686f726973656421000000000000000000000000000000000081525060200191505060405180910390fd5b6000809054906101000a900473ffffffffffffffffffffffffffffffffffffffff1673ffffffffffffffffffffffffffffffffffffffff1663a9059cbb3383600601546040518363ffffffff1660e01b8152600401808373ffffffffffffffffffffffffffffffffffffffff1673ffffffffffffffffffffffffffffffffffffffff16815260200182815260200192505050602060405180830381600087803b15801561327d57600080fd5b505af1158015613291573d6000803e3d6000fd5b505050506040513d60208110156132a757600080fd5b8101908080519060200190929190505050505b60018160000160016101000a81548160ff02191690831515021790555060008160000160006101000a81548160ff021916908315150217905550505050565b6000809054906101000a900473ffffffffffffffffffffffffffffffffffffffff1681565b600080600080600080613337600554610e10420361184c565b8095508194508296505050508361335c57613353600554610e49565b90915050809250505b61336d60055462015180420361184c565b8095508193508296505050508361339257613389600554610e49565b90915050809150505b808295509550505050509091565b600073ffffffffffffffffffffffffffffffffffffffff16600260009054906101000a900473ffffffffffffffffffffffffffffffffffffffff1673ffffffffffffffffffffffffffffffffffffffff1614613464576040517f08c379a000000000000000000000000000000000000000000000000000000000815260040180806020018281038252600b8152602001807f416c72656164792053657400000000000000000000000000000000000000000081525060200191505060405180910390fd5b80600260006101000a81548173ffffffffffffffffffffffffffffffffffffffff021916908373ffffffffffffffffffffffffffffffffffffffff16021790555080600460006101000a81548173ffffffffffffffffffffffffffffffffffffffff021916908373ffffffffffffffffffffffffffffffffffffffff1602179055507f5c6c85f31e475f047482022539bfe2a3941c15e582053b7420f22e5e8cc5d7f681604051808273ffffffffffffffffffffffffffffffffffffffff1673ffffffffffffffffffffffffffffffffffffffff16815260200191505060405180910390a150565b600080600080600460009054906101000a900473ffffffffffffffffffffffffffffffffffffffff1673ffffffffffffffffffffffffffffffffffffffff1663c4e9e950866040518263ffffffff1660e01b81526004018082815260200191505060206040518083038186803b1580156135c557600080fd5b505afa1580156135d9573d6000803e3d6000fd5b505050506040513d60208110156135ef57600080fd5b810190808051906020019092919050505090506000600460009054906101000a900473ffffffffffffffffffffffffffffffffffffffff1673ffffffffffffffffffffffffffffffffffffffff166373b33318876040518263ffffffff1660e01b81526004018082815260200191505060206040518083038186803b15801561367757600080fd5b505afa15801561368b573d6000803e3d6000fd5b505050506040513d60208110156136a157600080fd5b8101908080519060200190929190505050905060008211156138695760008060006136cc854261184c565b80935081945082955050505082156137a15783820281600460009054906101000a900473ffffffffffffffffffffffffffffffffffffffff1673ffffffffffffffffffffffffffffffffffffffff166367cfa3f860016040518263ffffffff1660e01b81526004018082815260200191505060206040518083038186803b15801561375657600080fd5b505afa15801561376a573d6000803e3d6000fd5b505050506040513d602081101561378057600080fd5b8101908080519060200190929190505050975097509750505050505061392a565b600080600460009054906101000a900473ffffffffffffffffffffffffffffffffffffffff1673ffffffffffffffffffffffffffffffffffffffff166367cfa3f860026040518263ffffffff1660e01b81526004018082815260200191505060206040518083038186803b15801561381857600080fd5b505afa15801561382c573d6000803e3d6000fd5b505050506040513d602081101561384257600080fd5b8101908080519060200190929190505050829250819150975097509750505050505061392a565b600080600460009054906101000a900473ffffffffffffffffffffffffffffffffffffffff1673ffffffffffffffffffffffffffffffffffffffff166367cfa3f860006040518263ffffffff1660e01b81526004018082815260200191505060206040518083038186803b1580156138e057600080fd5b505afa1580156138f4573d6000803e3d6000fd5b505050506040513d602081101561390a57600080fd5b810190808051906020019092919050505082925081915094509450945050505b9193909250565b60096000838152602001908152602001600020604051806101800160405290816000820160009054906101000a900460ff161515151581526020016000820160019054906101000a900460ff161515151581526020016000820160029054906101000a900473ffffffffffffffffffffffffffffffffffffffff1673ffffffffffffffffffffffffffffffffffffffff1673ffffffffffffffffffffffffffffffffffffffff1681526020016001820160009054906101000a900473ffffffffffffffffffffffffffffffffffffffff1673ffffffffffffffffffffffffffffffffffffffff1673ffffffffffffffffffffffffffffffffffffffff1681526020016001820160149054906101000a900460ff166001811115613a5057fe5b6001811115613a5b57fe5b81526020016002820154815260200160038201548152602001600482015481526020016005820154815260200160068201548152602001600782015481526020016008820154815250508060000151613aff576040517f08c379a000000000000000000000000000000000000000000000000000000000815260040180806020018281038252603a815260200180614271603a913960400191505060405180910390fd5b60008160a001511415613b7a576040517f08c379a00000000000000000000000000000000000000000000000000000000081526004018080602001828103825260118152602001807f496e76616c6964206f7074696f6e20696400000000000000000000000000000081525060200191505060405180910390fd5b4281610160015111613bf4576040517f08c379a00000000000000000000000000000000000000000000000000000000081526004018080602001828103825260138152602001807f4f7074696f6e206861732065787069726564210000000000000000000000000081525060200191505060405180910390fd5b6000600960008581526020019081526020016000209050600180811115613c1757fe5b8160010160149054906101000a900460ff166001811115613c3457fe5b14613ca7576040517f08c379a00000000000000000000000000000000000000000000000000000000081526004018080602001828103825260168152602001807f57726f6e67206f7074696f6e2073656c6563746564210000000000000000000081525060200191505060405180910390fd5b8060000160029054906101000a900473ffffffffffffffffffffffffffffffffffffffff1673ffffffffffffffffffffffffffffffffffffffff163373ffffffffffffffffffffffffffffffffffffffff161415613d6d576040517f08c379a000000000000000000000000000000000000000000000000000000000815260040180806020018281038252601d8152602001807f596f752073656c656374656420796f7572206f776e206f7074696f6e2100000081525060200191505060405180910390fd5b8060050154831015613de7576040517f08c379a000000000000000000000000000000000000000000000000000000000815260040180806020018281038252601c8152602001807f496e73756666696369656e74206d617267696e2070726f76696465640000000081525060200191505060405180910390fd5b60008060009054906101000a900473ffffffffffffffffffffffffffffffffffffffff1673ffffffffffffffffffffffffffffffffffffffff166323b872dd3330876040518463ffffffff1660e01b8152600401808473ffffffffffffffffffffffffffffffffffffffff1673ffffffffffffffffffffffffffffffffffffffff1681526020018373ffffffffffffffffffffffffffffffffffffffff1673ffffffffffffffffffffffffffffffffffffffff1681526020018281526020019350505050602060405180830381600087803b158015613ec557600080fd5b505af1158015613ed9573d6000803e3d6000fd5b505050506040513d6020811015613eef57600080fd5b8101908080519060200190929190505050905080613f58576040517f08c379a000000000000000000000000000000000000000000000000000000000815260040180806020018281038252603681526020018061423b6036913960400191505060405180910390fd5b6000809054906101000a900473ffffffffffffffffffffffffffffffffffffffff1673ffffffffffffffffffffffffffffffffffffffff1663a9059cbb3384600601546040518363ffffffff1660e01b8152600401808373ffffffffffffffffffffffffffffffffffffffff1673ffffffffffffffffffffffffffffffffffffffff16815260200182815260200192505050602060405180830381600087803b15801561400457600080fd5b505af1158015614018573d6000803e3d6000fd5b505050506040513d602081101561402e57600080fd5b81019080805190602001909291905050505083826004018190555060008260000160006101000a81548160ff021916908315150217905550338260010160006101000a81548173ffffffffffffffffffffffffffffffffffffffff021916908373ffffffffffffffffffffffffffffffffffffffff160217905550600a60003373ffffffffffffffffffffffffffffffffffffffff1673ffffffffffffffffffffffffffffffffffffffff1681526020019081526020016000208590806001815401808255809150509060018203906000526020600020016000909192909190915055505050505050565b6000808284029050600084148061413857508284828161413557fe5b04145b61413e57fe5b8091505092915050565b60008082848161415457fe5b0490508091505092915050565b60008282111561416d57fe5b818303905092915050565b604051806101800160405280600015158152602001600015158152602001600073ffffffffffffffffffffffffffffffffffffffff168152602001600073ffffffffffffffffffffffffffffffffffffffff168152602001600060018111156141dd57fe5b815260200160008152602001600081526020016000815260200160008152602001600081526020016000815260200160008152509056fe496e73756666696369656e742044414920617070726f76656420666f72207072656d69756d21496e737566666369656e7420616d6f756e7420617070726f76656420666f7220746865206f7074696f6e20746f207472616e736665724f7074696f6e20706f736974696f6e7320616c72656164792066696c6c6564206f72206f7074696f6e206e6f206c6f6e6765722076616c696421496e737566666369656e742044414920617070726f76656420666f72207472616e7366657221a265627a7a72315820e31e4ceba17193b46a0553a46519aa1019b8d5460cde604978c87518a09b0d9e64736f6c63430005100032",
  "source": "//SPDX-License-Identifier: MIT\r\npragma solidity >= 0.4.22 < 0.7.0;\r\n\r\nimport './daiContracts/UsingDAI.sol';\r\nimport './priceContract/UsingPriceFeed.sol';\r\n\r\ncontract PutOption is UsingDAI, UsingPriceFeed{\r\n    \r\n    using SafeMath for uint;\r\n    \r\n    uint public uniqueId;\r\n\r\n    address owner;\r\n    \r\n    enum POSITION { LONG, SHORT }\r\n    \r\n    /*\r\n    * partyL - address for long position\r\n    * partyS - address for short position\r\n    * settlementType - 0: ETH, 1: DAI\r\n    * cost - bid/ask price (10^18 DAI format)\r\n    * quantity - underlying ether amount (Wei)\r\n    * expiry - 48 hours from the time of creation\r\n    * openPosition - Long/Short position which the counterparty would be taking\r\n    */\r\n    struct Option{\r\n        bool isAvailable;\r\n        bool settled;\r\n        address partyL; \r\n        address partyS;\r\n        POSITION openPosition;\r\n        uint id;\r\n        uint settlementType;\r\n        uint initialSellerMargin;\r\n        uint strikePrice;\r\n        uint cost; \r\n        uint quantity;\r\n        uint expiry;\r\n    }\r\n    \r\n    mapping(uint => Option) public idToOption;\r\n    mapping(address => uint[]) public addressToOptions;\r\n    \r\n    constructor(address _daiAddress, address payable _tellorAddress) UsingDAI(_daiAddress) UsingPriceFeed(_tellorAddress) public{\r\n        uniqueId = 1; //Initial value\r\n        owner = msg.sender;\r\n    }\r\n    \r\n     /*\r\n    * @notice Creates a new put option order for the Long/Buy position\r\n    * @dev Must be preceded by a approve call to DAI token contract, during implementation\r\n    * @dev Short party is initially set to 0 address\r\n    * @param _quantity represents the amount of ether underlying the option\r\n    * @param _type is the settlement type. 0:ETH, 1:DAI\r\n    * @param _cost is representing the bid amount for premium\r\n    */\r\n    function createNewOptionLong(\r\n        uint _type,\r\n        uint _strikePrice, \r\n        uint _cost, \r\n        uint _quantity) external{\r\n            \r\n            bool _costEscrowed;\r\n            _costEscrowed = daiInstance.transferFrom(msg.sender, address(this), _cost);\r\n            require(_costEscrowed, \"Insuffcient amount approved for the option to transfer\");\r\n            \r\n            Option memory newOption = Option(\r\n                true,\r\n                false,\r\n                msg.sender,\r\n                address(0),\r\n                POSITION.SHORT,\r\n                uniqueId,\r\n                _type,\r\n                0,\r\n                _strikePrice,\r\n                _cost,\r\n                _quantity,\r\n                now + 2 days\r\n                );\r\n            \r\n            idToOption[uniqueId] = newOption;\r\n            addressToOptions[msg.sender].push(uniqueId);\r\n            \r\n            uniqueId++;\r\n        }\r\n    \r\n    /*\r\n    * @notice Creates a new call option order for the Sell/Short position\r\n    * @dev Must be preceded by approve call\r\n    * @param _quantity represents the amount of ether underlying the option\r\n    * @param _cost represents the ask amount for the premium\r\n    * @param _initialMargin: equal to or greater than the strike price\r\n    */\r\n    function createNewOptionShort(\r\n        uint _strikePrice,\r\n        uint _cost,\r\n        uint _quantity,\r\n        uint _initialMargin\r\n        ) external {\r\n            \r\n            require(_initialMargin >= _strikePrice, \"Insufficient margin provided\");\r\n            \r\n            bool _marginEscrowed = daiInstance.transferFrom(msg.sender, address(this), _initialMargin);\r\n            require(_marginEscrowed, \"Insuffcient amount approved for the option to transfer\");\r\n            \r\n            Option memory newOption = Option(\r\n                true,\r\n                false,\r\n                address(0),\r\n                msg.sender,\r\n                POSITION.LONG,\r\n                uniqueId,\r\n                0,\r\n                _initialMargin, \r\n                _strikePrice,\r\n                _cost,\r\n                _quantity,\r\n                now + 2 days\r\n                );\r\n            \r\n            idToOption[uniqueId] = newOption;\r\n            addressToOptions[msg.sender].push(uniqueId);\r\n            \r\n            uniqueId++;\r\n        }\r\n    \r\n    /*\r\n    * @notice Join a shorted order\r\n    * @dev Must be preceded by a approve call to DAI token contract, during implementation\r\n    */\r\n    function buyToOpen(uint _id, uint _type) external isAvailable(idToOption[_id]){\r\n        \r\n        //fetch option from mapping\r\n        Option storage option = idToOption[_id];\r\n    \r\n        //Check if a valid option is being selected\r\n        require(option.openPosition == POSITION.LONG, \"Wrong option selected!\");\r\n        require(msg.sender != option.partyS, \"You selected your own option!\");\r\n        \r\n        bool _premiumSent;\r\n        _premiumSent = daiInstance.transferFrom(msg.sender, address(this), option.cost);\r\n        require(_premiumSent, \"Insufficient DAI approved for premium!\");\r\n        \r\n        //If premium sent to the contrac transfer to the short party\r\n        daiInstance.transfer(option.partyS, option.cost);\r\n        \r\n        //Option positions filled\r\n        option.isAvailable = false;\r\n        option.partyL = msg.sender;\r\n        option.settlementType = _type;\r\n\r\n        //Add option to address list\r\n        addressToOptions[msg.sender].push(_id);\r\n    }\r\n    \r\n    /*\r\n    *@notice Sell to a Long bid\r\n    *@dev Approve call must precede \r\n    *@param _initialMargin is the amount of DAI sent for margin\r\n    */\r\n    function sellToOpen(uint _id, uint _initialMargin) external isAvailable(idToOption[_id]){\r\n        \r\n        //fetch option from mapping\r\n        Option storage option = idToOption[_id];\r\n    \r\n        //Check if a valid option is being selected\r\n        require(option.openPosition == POSITION.SHORT, \"Wrong option selected!\");\r\n        require(msg.sender != option.partyL, \"You selected your own option!\");\r\n       \r\n        require(_initialMargin >= option.strikePrice, \"Insufficient margin provided\");\r\n            \r\n        bool _marginEscrowed = daiInstance.transferFrom(msg.sender, address(this), _initialMargin);\r\n        require(_marginEscrowed, \"Insuffcient amount approved for the option to transfer\");\r\n        \r\n        //transfer premium \r\n        daiInstance.transfer(msg.sender, option.cost);\r\n        \r\n        option.initialSellerMargin = _initialMargin;\r\n        option.isAvailable = false;\r\n        option.partyS = msg.sender;\r\n\r\n        //Add option to address list\r\n        addressToOptions[msg.sender].push(_id);\r\n    }\r\n    \r\n    /*\r\n    *@notice Settles a valid option. ETH/DAI settlement.\r\n    *@dev Must be preceded by approve(strike) calls in the case for type 0\r\n    */\r\n    function settleOption(uint _id) external payable hasNotSettled(idToOption[_id]) {\r\n        \r\n        Option storage option = idToOption[_id];\r\n\r\n        \r\n        uint marketVal = option.quantity.mul(getMarketValue());\r\n        marketVal = marketVal.div(10**18);\r\n        \r\n        require(option.strikePrice > marketVal, \"Lossy close!\");\r\n        \r\n        //Calls only by long position \r\n        require(msg.sender == option.partyL, \"Unauthorized call!\");\r\n        \r\n        if(option.settlementType == 0){\r\n            //ETH settlement\r\n            require(msg.value == option.quantity, \"Insuffcient DAI approved for transfer!\");\r\n            \r\n            //transfer ETH\r\n            address(uint160(option.partyS)).transfer(option.quantity);\r\n            //transfer DAI to buyer \r\n            daiInstance.transfer(option.partyL, option.strikePrice);\r\n        }else{\r\n            //DAI settlement\r\n            uint profit = option.strikePrice.sub(marketVal);\r\n            daiInstance.transfer(msg.sender, profit);\r\n            \r\n            //remaining DAI back to Seller\r\n            uint remaining = option.initialSellerMargin.sub(profit);\r\n            daiInstance.transfer(option.partyS, remaining);\r\n        }\r\n        \r\n        option.settled = true;\r\n    }\r\n    \r\n    /*\r\n    *@notice Closes an expired or unwanted option\r\n    */\r\n    function closeOption(uint _id) external notFilledorExpired(idToOption[_id]){\r\n        \r\n        Option storage option = idToOption[_id];\r\n        \r\n        if(option.openPosition == POSITION.LONG){\r\n            require(msg.sender == option.partyS, \"Not authorised!\");\r\n            daiInstance.transfer(msg.sender, option.initialSellerMargin);\r\n        }\r\n        else{\r\n            require(msg.sender == option.partyL, \"Not authorised!\");\r\n            daiInstance.transfer(msg.sender, option.cost);\r\n        }\r\n        \r\n        option.settled = true;\r\n        option.isAvailable = false;\r\n    }\r\n    \r\n    /*\r\n    * @notice Refunds the escrow margin for expired and not settled contracts\r\n    */\r\n    function refundExpired(uint _id) external isFilledandExpired(idToOption[_id]){\r\n        \r\n        Option storage option = idToOption[_id];\r\n        \r\n        require(msg.sender == option.partyS, \"Wrong address!\");\r\n        \r\n        daiInstance.transfer(msg.sender, option.initialSellerMargin);\r\n        \r\n        option.settled = true;\r\n        option.isAvailable = false;\r\n    }\r\n\r\n    /*\r\n    *@notice Utility to send number of contracts associated to a person\r\n    */\r\n    function getOptionsCount(address _address) public view returns(uint){\r\n        return addressToOptions[_address].length;\r\n    }\r\n    \r\n    modifier notFilledorExpired(Option memory option){\r\n        require(option.isAvailable, \"Option positions already filled or option no longer valid!\");\r\n        require(option.id != 0, \"Invalid option id\");\r\n        _;\r\n    }\r\n    \r\n    modifier isAvailable(Option memory option){\r\n        require(option.isAvailable, \"Option positions already filled or option no longer valid!\");\r\n        require(option.id != 0, \"Invalid option id\");\r\n        require(option.expiry > now, \"Option has expired!\");\r\n        _;\r\n    }\r\n    \r\n    modifier isFilledandExpired(Option memory option){\r\n        require(option.id != 0, \"Invalid option\");\r\n        require(!option.isAvailable, \"Option not filled!\");\r\n        require(!option.settled, \"Already settled!\");\r\n        require(option.expiry < now, \"Not yet expired!\");\r\n        _;\r\n    }\r\n    \r\n    modifier hasNotSettled(Option memory option){\r\n        require(option.id != 0, \"Invalid option id\");\r\n        require(!option.isAvailable, \"Option not yet confirmed!\");\r\n        require(!option.settled, \"Option already settled\");\r\n        require(option.expiry > now, \"Option has expired!\");\r\n        _;\r\n    }\r\n}",
  "sourcePath": "C:\\Users\\AnshuJalan\\Documents\\Chainrunner\\newton\\contracts\\PutOption.sol",
  "compiler": {
    "name": "solc",
    "version": "0.5.16+commit.9c3226ce.Emscripten.clang"
  },
  "schemaVersion": "3.2.0",
  "updatedAt": "2020-06-28T10:05:24.933Z",
  "networkType": "ethereum",
  "devdoc": {
    "methods": {
      "getCurrentValue(uint256)": {
        "details": "Allows the user to get the latest value for the requestId specified",
        "params": {
          "_requestId": "is the requestId to look up the value for"
        },
        "return": "bool true if it is able to retreive a value, the value, and the value's timestamp"
      },
      "getDataBefore(uint256,uint256)": {
        "details": "Allows the user to get the first value for the requestId after the specified timestamp",
        "params": {
          "_requestId": "is the requestId to look up the value for",
          "_timestamp": "after which to search for first verified value"
        },
        "return": "bool true if it is able to retreive a value, the value, and the value's timestamp"
      },
      "valueFor(bytes32)": {
        "details": "Allows the user to get the latest value for the requestId specified using the  ADO specification for the standard inteface for price oracles",
        "params": {
          "_bytesId": "is the ADO standarized bytes32 price/key value pair identifier"
        },
        "return": "the timestamp, outcome or value/ and the status code (for retreived, null, etc...)"
      }
    }
  },
  "userdoc": {
    "methods": {}
  }
}