{
  "contractName": "Tellor",
  "abi": [
    {
      "constant": false,
      "inputs": [
        {
          "internalType": "address",
          "name": "_address",
          "type": "address"
        },
        {
          "internalType": "uint256",
          "name": "_amount",
          "type": "uint256"
        }
      ],
      "name": "theLazyCoon",
      "outputs": [],
      "payable": false,
      "stateMutability": "nonpayable",
      "type": "function"
    },
    {
      "constant": false,
      "inputs": [
        {
          "internalType": "uint256",
          "name": "_requestId",
          "type": "uint256"
        },
        {
          "internalType": "uint256",
          "name": "_timestamp",
          "type": "uint256"
        },
        {
          "internalType": "uint256",
          "name": "_minerIndex",
          "type": "uint256"
        }
      ],
      "name": "beginDispute",
      "outputs": [],
      "payable": false,
      "stateMutability": "nonpayable",
      "type": "function"
    },
    {
      "constant": false,
      "inputs": [
        {
          "internalType": "uint256",
          "name": "_requestId",
          "type": "uint256"
        },
        {
          "internalType": "uint256",
          "name": "_tip",
          "type": "uint256"
        }
      ],
      "name": "addTip",
      "outputs": [],
      "payable": false,
      "stateMutability": "nonpayable",
      "type": "function"
    },
    {
      "constant": false,
      "inputs": [
        {
          "internalType": "string",
          "name": "_c_sapi",
          "type": "string"
        },
        {
          "internalType": "string",
          "name": "_c_symbol",
          "type": "string"
        },
        {
          "internalType": "uint256",
          "name": "_granularity",
          "type": "uint256"
        },
        {
          "internalType": "uint256",
          "name": "_tip",
          "type": "uint256"
        }
      ],
      "name": "requestData",
      "outputs": [],
      "payable": false,
      "stateMutability": "nonpayable",
      "type": "function"
    },
    {
      "constant": false,
      "inputs": [
        {
          "internalType": "string",
          "name": "_nonce",
          "type": "string"
        },
        {
          "internalType": "uint256",
          "name": "_requestId",
          "type": "uint256"
        },
        {
          "internalType": "uint256",
          "name": "_value",
          "type": "uint256"
        }
      ],
      "name": "submitMiningSolution",
      "outputs": [],
      "payable": false,
      "stateMutability": "nonpayable",
      "type": "function"
    },
    {
      "constant": false,
      "inputs": [
        {
          "internalType": "address",
          "name": "_spender",
          "type": "address"
        },
        {
          "internalType": "uint256",
          "name": "_amount",
          "type": "uint256"
        }
      ],
      "name": "approve",
      "outputs": [
        {
          "internalType": "bool",
          "name": "",
          "type": "bool"
        }
      ],
      "payable": false,
      "stateMutability": "nonpayable",
      "type": "function"
    },
    {
      "constant": false,
      "inputs": [
        {
          "internalType": "address",
          "name": "_to",
          "type": "address"
        },
        {
          "internalType": "uint256",
          "name": "_amount",
          "type": "uint256"
        }
      ],
      "name": "transfer",
      "outputs": [
        {
          "internalType": "bool",
          "name": "",
          "type": "bool"
        }
      ],
      "payable": false,
      "stateMutability": "nonpayable",
      "type": "function"
    },
    {
      "constant": false,
      "inputs": [
        {
          "internalType": "address",
          "name": "_from",
          "type": "address"
        },
        {
          "internalType": "address",
          "name": "_to",
          "type": "address"
        },
        {
          "internalType": "uint256",
          "name": "_amount",
          "type": "uint256"
        }
      ],
      "name": "transferFrom",
      "outputs": [
        {
          "internalType": "bool",
          "name": "",
          "type": "bool"
        }
      ],
      "payable": false,
      "stateMutability": "nonpayable",
      "type": "function"
    }
  ],
  "bytecode": "0x608060405234801561001057600080fd5b50610a43806100206000396000f3fe608060405234801561001057600080fd5b50600436106100885760003560e01c8063752d49a11161005b578063752d49a1146102e85780638581af1914610320578063a9059cbb14610362578063b079f64a146103c857610088565b8063095ea7b31461008d57806323b872dd146100f35780633fff28161461017957806368c180d51461025b575b600080fd5b6100d9600480360360408110156100a357600080fd5b81019080803573ffffffffffffffffffffffffffffffffffffffff16906020019092919080359060200190929190505050610416565b604051808215151515815260200191505060405180910390f35b61015f6004803603606081101561010957600080fd5b81019080803573ffffffffffffffffffffffffffffffffffffffff169060200190929190803573ffffffffffffffffffffffffffffffffffffffff169060200190929190803590602001909291905050506104e8565b604051808215151515815260200191505060405180910390f35b6102596004803603608081101561018f57600080fd5b81019080803590602001906401000000008111156101ac57600080fd5b8201836020820111156101be57600080fd5b803590602001918460018302840111640100000000831117156101e057600080fd5b90919293919293908035906020019064010000000081111561020157600080fd5b82018360208201111561021357600080fd5b8035906020019184600183028401116401000000008311171561023557600080fd5b909192939192939080359060200190929190803590602001909291905050506105ef565b005b6102e66004803603606081101561027157600080fd5b810190808035906020019064010000000081111561028e57600080fd5b8201836020820111156102a057600080fd5b803590602001918460018302840111640100000000831117156102c257600080fd5b909192939192939080359060200190929190803590602001909291905050506106d9565b005b61031e600480360360408110156102fe57600080fd5b81019080803590602001909291908035906020019092919050505061078d565b005b6103606004803603606081101561033657600080fd5b8101908080359060200190929190803590602001909291908035906020019092919050505061080b565b005b6103ae6004803603604081101561037857600080fd5b81019080803573ffffffffffffffffffffffffffffffffffffffff16906020019092919080359060200190929190505050610892565b604051808215151515815260200191505060405180910390f35b610414600480360360408110156103de57600080fd5b81019080803573ffffffffffffffffffffffffffffffffffffffff16906020019092919080359060200190929190505050610964565b005b60008073__TellorTransfer________________________63850dcc32909185856040518463ffffffff1660e01b8152600401808481526020018373ffffffffffffffffffffffffffffffffffffffff1673ffffffffffffffffffffffffffffffffffffffff168152602001828152602001935050505060206040518083038186803b1580156104a557600080fd5b505af41580156104b9573d6000803e3d6000fd5b505050506040513d60208110156104cf57600080fd5b8101908080519060200190929190505050905092915050565b60008073__TellorTransfer________________________63ca50189990918686866040518563ffffffff1660e01b8152600401808581526020018473ffffffffffffffffffffffffffffffffffffffff1673ffffffffffffffffffffffffffffffffffffffff1681526020018373ffffffffffffffffffffffffffffffffffffffff1673ffffffffffffffffffffffffffffffffffffffff16815260200182815260200194505050505060206040518083038186803b1580156105ab57600080fd5b505af41580156105bf573d6000803e3d6000fd5b505050506040513d60208110156105d557600080fd5b810190808051906020019092919050505090509392505050565b600073__TellorLibrary_________________________6385997bf690918888888888886040518863ffffffff1660e01b81526004018088815260200180602001806020018581526020018481526020018381038352898982818152602001925080828437600081840152601f19601f8201169050808301925050508381038252878782818152602001925080828437600081840152601f19601f820116905080830192505050995050505050505050505060006040518083038186803b1580156106b957600080fd5b505af41580156106cd573d6000803e3d6000fd5b50505050505050505050565b600073__TellorLibrary_________________________63a098b5b49091868686866040518663ffffffff1660e01b815260040180868152602001806020018481526020018381526020018281038252868682818152602001925080828437600081840152601f19601f820116905080830192505050965050505050505060006040518083038186803b15801561076f57600080fd5b505af4158015610783573d6000803e3d6000fd5b5050505050505050565b600073__TellorLibrary_________________________6302e8f21b909184846040518463ffffffff1660e01b815260040180848152602001838152602001828152602001935050505060006040518083038186803b1580156107ef57600080fd5b505af4158015610803573d6000803e3d6000fd5b505050505050565b600073__TellorDispute_________________________63ca9a4ea590918585856040518563ffffffff1660e01b81526004018085815260200184815260200183815260200182815260200194505050505060006040518083038186803b15801561087557600080fd5b505af4158015610889573d6000803e3d6000fd5b50505050505050565b60008073__TellorTransfer________________________63c84b96f5909185856040518463ffffffff1660e01b8152600401808481526020018373ffffffffffffffffffffffffffffffffffffffff1673ffffffffffffffffffffffffffffffffffffffff168152602001828152602001935050505060206040518083038186803b15801561092157600080fd5b505af4158015610935573d6000803e3d6000fd5b505050506040513d602081101561094b57600080fd5b8101908080519060200190929190505050905092915050565b600073__TellorLibrary_________________________6348656ba6909184846040518463ffffffff1660e01b8152600401808481526020018373ffffffffffffffffffffffffffffffffffffffff1673ffffffffffffffffffffffffffffffffffffffff168152602001828152602001935050505060006040518083038186803b1580156109f257600080fd5b505af4158015610a06573d6000803e3d6000fd5b50505050505056fea265627a7a72315820c7cc51fe1bcadaa72806b93b35f806ddd1098f9ed879b3f79ce746cfd692e96264736f6c63430005100032",
  "source": "pragma solidity ^0.5.0;\r\n\r\n/**** Tellor Test Contract***/\r\n/*WARNING: This contract excludes mining functions\r\n           This has bee adapted for projects testing Tellor integration\r\n\r\n**/\r\nimport \"../libraries/SafeMath.sol\";\r\nimport \"../libraries/TellorStorage.sol\";\r\nimport \"../libraries/TellorTransfer.sol\";\r\nimport \"../libraries/TellorDispute.sol\";\r\n//import \"./libraries/TellorStake.sol\";\r\nimport \"../libraries/TellorLibrary.sol\";\r\n\r\n/**\r\n * @title Tellor Oracle System\r\n * @dev Oracle contract where miners can submit the proof of work along with the value.\r\n * The logic for this contract is in TellorLibrary.sol, TellorDispute.sol, TellorStake.sol,\r\n * and TellorTransfer.sol\r\n */\r\ncontract Tellor {\r\n    using SafeMath for uint256;\r\n\r\n    using TellorDispute for TellorStorage.TellorStorageStruct;\r\n    using TellorLibrary for TellorStorage.TellorStorageStruct;\r\n    //using TellorStake for TellorStorage.TellorStorageStruct;\r\n    using TellorTransfer for TellorStorage.TellorStorageStruct;\r\n\r\n    TellorStorage.TellorStorageStruct tellor;\r\n\r\n    /*Functions*/\r\n\r\n    /*This function is NOT part of mainnet deployment. It is a cheat for demo and testing purposes*/\r\n    function theLazyCoon(address _address, uint _amount) public {\r\n        tellor.theLazyCoon(_address,_amount);\r\n    }\r\n\r\n    /**\r\n    * @dev Helps initialize a dispute by assigning it a disputeId\r\n    * when a miner returns a false on the validate array(in Tellor.ProofOfWork) it sends the\r\n    * invalidated value information to POS voting\r\n    * @param _requestId being disputed\r\n    * @param _timestamp being disputed\r\n    * @param _minerIndex the index of the miner that submitted the value being disputed. Since each official value\r\n    * requires 5 miners to submit a value.\r\n    */\r\n    function beginDispute(uint256 _requestId, uint256 _timestamp, uint256 _minerIndex) external {\r\n        tellor.beginDispute(_requestId, _timestamp, _minerIndex);\r\n    }\r\n\r\n    // *\r\n    // * @dev Allows token holders to vote\r\n    // * @param _disputeId is the dispute id\r\n    // * @param _supportsDispute is the vote (true=the dispute has basis false = vote against dispute)\r\n    \r\n    // function vote(uint256 _disputeId, bool _supportsDispute) external {\r\n    //     tellor.vote(_disputeId, _supportsDispute);\r\n    // }\r\n\r\n    // /**\r\n    // * @dev tallies the votes.\r\n    // * @param _disputeId is the dispute id\r\n    // */\r\n    // function tallyVotes(uint256 _disputeId) external {\r\n    //     tellor.tallyVotes(_disputeId);\r\n    // }\r\n\r\n    // /**\r\n    // * @dev Allows for a fork to be proposed\r\n    // * @param _propNewTellorAddress address for new proposed Tellor\r\n    // */\r\n    // function proposeFork(address _propNewTellorAddress) external {\r\n    //     tellor.proposeFork(_propNewTellorAddress);\r\n    // }\r\n\r\n    /**\r\n    * @dev Add tip to Request value from oracle\r\n    * @param _requestId being requested to be mined\r\n    * @param _tip amount the requester is willing to pay to be get on queue. Miners\r\n    * mine the onDeckQueryHash, or the api with the highest payout pool\r\n    */\r\n    function addTip(uint256 _requestId, uint256 _tip) external {\r\n        tellor.addTip(_requestId, _tip);\r\n    }\r\n\r\n    /**\r\n    * @dev Request to retreive value from oracle based on timestamp. The tip is not required to be\r\n    * greater than 0 because there are no tokens in circulation for the initial(genesis) request\r\n    * @param _c_sapi string API being requested be mined\r\n    * @param _c_symbol is the short string symbol for the api request\r\n    * @param _granularity is the number of decimals miners should include on the submitted value\r\n    * @param _tip amount the requester is willing to pay to be get on queue. Miners\r\n    * mine the onDeckQueryHash, or the api with the highest payout pool\r\n    */\r\n    function requestData(string calldata _c_sapi, string calldata _c_symbol, uint256 _granularity, uint256 _tip) external {\r\n        tellor.requestData(_c_sapi, _c_symbol, _granularity, _tip);\r\n    }\r\n\r\n    /**\r\n    * @dev Proof of work is called by the miner when they submit the solution (proof of work and value)\r\n    * @param _nonce uint submitted by miner\r\n    * @param _requestId the apiId being mined\r\n    * @param _value of api query\r\n    */\r\n    function submitMiningSolution(string calldata _nonce, uint256 _requestId, uint256 _value) external {\r\n        tellor.submitMiningSolution(_nonce, _requestId, _value);\r\n    }\r\n\r\n    // /**\r\n    // * @dev Allows the current owner to propose transfer control of the contract to a\r\n    // * newOwner and the ownership is pending until the new owner calls the claimOwnership\r\n    // * function\r\n    // * @param _pendingOwner The address to transfer ownership to.\r\n    // */\r\n    // function proposeOwnership(address payable _pendingOwner) external {\r\n    //     tellor.proposeOwnership(_pendingOwner);\r\n    // }\r\n\r\n    // /**\r\n    // * @dev Allows the new owner to claim control of the contract\r\n    // */\r\n    // function claimOwnership() external {\r\n    //     tellor.claimOwnership();\r\n    // }\r\n\r\n    // /**\r\n    // * @dev This function allows miners to deposit their stake.\r\n    // */\r\n    // function depositStake() external {\r\n    //     tellor.depositStake();\r\n    // }\r\n\r\n    // *\r\n    // * @dev This function allows stakers to request to withdraw their stake (no longer stake)\r\n    // * once they lock for withdraw(stakes.currentStatus = 2) they are locked for 7 days before they\r\n    // * can withdraw the stake\r\n    \r\n    // function requestStakingWithdraw() external {\r\n    //     tellor.requestStakingWithdraw();\r\n    // }\r\n\r\n    // /**\r\n    // * @dev This function allows users to withdraw their stake after a 7 day waiting period from request\r\n    // */\r\n    // function withdrawStake() external {\r\n    //     tellor.withdrawStake();\r\n    // }\r\n\r\n    /**\r\n    * @dev This function approves a _spender an _amount of tokens to use\r\n    * @param _spender address\r\n    * @param _amount amount the spender is being approved for\r\n    * @return true if spender appproved successfully\r\n    */\r\n    function approve(address _spender, uint256 _amount) external returns (bool) {\r\n        return tellor.approve(_spender, _amount);\r\n    }\r\n\r\n    /**\r\n    * @dev Allows for a transfer of tokens to _to\r\n    * @param _to The address to send tokens to\r\n    * @param _amount The amount of tokens to send\r\n    * @return true if transfer is successful\r\n    */\r\n    function transfer(address _to, uint256 _amount) external returns (bool) {\r\n        return tellor.transfer(_to, _amount);\r\n    }\r\n\r\n    /**\r\n    * @dev Sends _amount tokens to _to from _from on the condition it\r\n    * is approved by _from\r\n    * @param _from The address holding the tokens being transferred\r\n    * @param _to The address of the recipient\r\n    * @param _amount The amount of tokens to be transferred\r\n    * @return True if the transfer was successful\r\n    */\r\n    function transferFrom(address _from, address _to, uint256 _amount) external returns (bool) {\r\n        return tellor.transferFrom(_from, _to, _amount);\r\n    }\r\n\r\n    // /**\r\n    // * @dev Allows users to access the token's name\r\n    // */\r\n    // function name() external pure returns (string memory) {\r\n    //     return \"Tellor Tributes\";\r\n    // }\r\n\r\n    // /**\r\n    // * @dev Allows users to access the token's symbol\r\n    // */\r\n    // function symbol() external pure returns (string memory) {\r\n    //     return \"TRB\";\r\n    // }\r\n\r\n    // /**\r\n    // * @dev Allows users to access the number of decimals\r\n    // */\r\n    // function decimals() external pure returns (uint8) {\r\n    //     return 18;\r\n    // }\r\n\r\n}\r\n",
  "sourcePath": "usingtellor\\contracts\\testContracts\\Tellor.sol",
  "compiler": {
    "name": "solc",
    "version": "0.5.16+commit.9c3226ce.Emscripten.clang"
  },
  "schemaVersion": "3.2.0",
  "updatedAt": "2020-06-28T09:59:51.807Z",
  "devdoc": {
    "details": "Oracle contract where miners can submit the proof of work along with the value. The logic for this contract is in TellorLibrary.sol, TellorDispute.sol, TellorStake.sol, and TellorTransfer.sol",
    "methods": {
      "addTip(uint256,uint256)": {
        "details": "Add tip to Request value from oracle",
        "params": {
          "_requestId": "being requested to be mined",
          "_tip": "amount the requester is willing to pay to be get on queue. Miners mine the onDeckQueryHash, or the api with the highest payout pool"
        }
      },
      "approve(address,uint256)": {
        "details": "This function approves a _spender an _amount of tokens to use",
        "params": {
          "_amount": "amount the spender is being approved for",
          "_spender": "address"
        },
        "return": "true if spender appproved successfully"
      },
      "beginDispute(uint256,uint256,uint256)": {
        "details": "Helps initialize a dispute by assigning it a disputeId when a miner returns a false on the validate array(in Tellor.ProofOfWork) it sends the invalidated value information to POS voting",
        "params": {
          "_minerIndex": "the index of the miner that submitted the value being disputed. Since each official value requires 5 miners to submit a value.",
          "_requestId": "being disputed",
          "_timestamp": "being disputed"
        }
      },
      "requestData(string,string,uint256,uint256)": {
        "details": "Request to retreive value from oracle based on timestamp. The tip is not required to be greater than 0 because there are no tokens in circulation for the initial(genesis) request",
        "params": {
          "_c_sapi": "string API being requested be mined",
          "_c_symbol": "is the short string symbol for the api request",
          "_granularity": "is the number of decimals miners should include on the submitted value",
          "_tip": "amount the requester is willing to pay to be get on queue. Miners mine the onDeckQueryHash, or the api with the highest payout pool"
        }
      },
      "submitMiningSolution(string,uint256,uint256)": {
        "details": "Proof of work is called by the miner when they submit the solution (proof of work and value)",
        "params": {
          "_nonce": "uint submitted by miner",
          "_requestId": "the apiId being mined",
          "_value": "of api query"
        }
      },
      "transfer(address,uint256)": {
        "details": "Allows for a transfer of tokens to _to",
        "params": {
          "_amount": "The amount of tokens to send",
          "_to": "The address to send tokens to"
        },
        "return": "true if transfer is successful"
      },
      "transferFrom(address,address,uint256)": {
        "details": "Sends _amount tokens to _to from _from on the condition it is approved by _from",
        "params": {
          "_amount": "The amount of tokens to be transferred",
          "_from": "The address holding the tokens being transferred",
          "_to": "The address of the recipient"
        },
        "return": "True if the transfer was successful"
      }
    },
    "title": "Tellor Oracle System"
  },
  "userdoc": {
    "methods": {}
  }
}