{
  "contractName": "UsingPriceFeed",
  "abi": [
    {
      "inputs": [
        {
          "internalType": "address payable",
          "name": "_tellorAddress",
          "type": "address"
        }
      ],
      "payable": false,
      "stateMutability": "nonpayable",
      "type": "constructor"
    },
    {
      "anonymous": false,
      "inputs": [
        {
          "indexed": false,
          "internalType": "address",
          "name": "_descriptorSet",
          "type": "address"
        }
      ],
      "name": "NewDescriptorSet",
      "type": "event"
    },
    {
      "constant": true,
      "inputs": [
        {
          "internalType": "uint256",
          "name": "_requestId",
          "type": "uint256"
        }
      ],
      "name": "getCurrentValue",
      "outputs": [
        {
          "internalType": "bool",
          "name": "ifRetrieve",
          "type": "bool"
        },
        {
          "internalType": "uint256",
          "name": "value",
          "type": "uint256"
        },
        {
          "internalType": "uint256",
          "name": "_timestampRetrieved",
          "type": "uint256"
        }
      ],
      "payable": false,
      "stateMutability": "view",
      "type": "function"
    },
    {
      "constant": true,
      "inputs": [
        {
          "internalType": "uint256",
          "name": "_requestId",
          "type": "uint256"
        },
        {
          "internalType": "uint256",
          "name": "_timestamp",
          "type": "uint256"
        }
      ],
      "name": "getDataBefore",
      "outputs": [
        {
          "internalType": "bool",
          "name": "_ifRetrieve",
          "type": "bool"
        },
        {
          "internalType": "uint256",
          "name": "_value",
          "type": "uint256"
        },
        {
          "internalType": "uint256",
          "name": "_timestampRetrieved",
          "type": "uint256"
        }
      ],
      "payable": false,
      "stateMutability": "view",
      "type": "function"
    },
    {
      "constant": true,
      "inputs": [],
      "name": "oracleIDDescriptionsAddress",
      "outputs": [
        {
          "internalType": "address",
          "name": "",
          "type": "address"
        }
      ],
      "payable": false,
      "stateMutability": "view",
      "type": "function"
    },
    {
      "constant": false,
      "inputs": [
        {
          "internalType": "address",
          "name": "_oracleDescriptors",
          "type": "address"
        }
      ],
      "name": "setOracleIDDescriptors",
      "outputs": [],
      "payable": false,
      "stateMutability": "nonpayable",
      "type": "function"
    },
    {
      "constant": true,
      "inputs": [],
      "name": "tellorStorageAddress",
      "outputs": [
        {
          "internalType": "address payable",
          "name": "",
          "type": "address"
        }
      ],
      "payable": false,
      "stateMutability": "view",
      "type": "function"
    },
    {
      "constant": true,
      "inputs": [
        {
          "internalType": "bytes32",
          "name": "_bytesId",
          "type": "bytes32"
        }
      ],
      "name": "valueFor",
      "outputs": [
        {
          "internalType": "int256",
          "name": "value",
          "type": "int256"
        },
        {
          "internalType": "uint256",
          "name": "timestamp",
          "type": "uint256"
        },
        {
          "internalType": "uint256",
          "name": "status",
          "type": "uint256"
        }
      ],
      "payable": false,
      "stateMutability": "view",
      "type": "function"
    },
    {
      "constant": true,
      "inputs": [],
      "name": "getMarketValue",
      "outputs": [
        {
          "internalType": "uint256",
          "name": "",
          "type": "uint256"
        }
      ],
      "payable": false,
      "stateMutability": "view",
      "type": "function"
    },
    {
      "constant": true,
      "inputs": [],
      "name": "getEthRange",
      "outputs": [
        {
          "internalType": "uint256",
          "name": "",
          "type": "uint256"
        },
        {
          "internalType": "uint256",
          "name": "",
          "type": "uint256"
        }
      ],
      "payable": false,
      "stateMutability": "view",
      "type": "function"
    },
    {
      "constant": true,
      "inputs": [],
      "name": "getDaiRange",
      "outputs": [
        {
          "internalType": "uint256",
          "name": "",
          "type": "uint256"
        },
        {
          "internalType": "uint256",
          "name": "",
          "type": "uint256"
        }
      ],
      "payable": false,
      "stateMutability": "view",
      "type": "function"
    }
  ],
  "bytecode": "0x608060405234801561001057600080fd5b50604051610f62380380610f628339818101604052602081101561003357600080fd5b810190808051906020019092919050505080806000806101000a81548173ffffffffffffffffffffffffffffffffffffffff021916908373ffffffffffffffffffffffffffffffffffffffff1602179055506000809054906101000a900473ffffffffffffffffffffffffffffffffffffffff16600260006101000a81548173ffffffffffffffffffffffffffffffffffffffff021916908373ffffffffffffffffffffffffffffffffffffffff160217905550506001600481905550602760058190555050610e5a806101086000396000f3fe608060405234801561001057600080fd5b50600436106100935760003560e01c806366b446111161006657806366b4461114610179578063a8020973146101d7578063b8255d4514610221578063bb97f31d14610246578063f78eea831461028a57610093565b80633fcad9641461009857806348f28219146100ec578063526366b41461011157806362befb1e1461015b575b600080fd5b6100c4600480360360208110156100ae57600080fd5b81019080803590602001909291905050506102da565b6040518084151515158152602001838152602001828152602001935050505060405180910390f35b6100f46102f6565b604051808381526020018281526020019250505060405180910390f35b610119610378565b604051808273ffffffffffffffffffffffffffffffffffffffff1673ffffffffffffffffffffffffffffffffffffffff16815260200191505060405180910390f35b61016361039e565b6040518082815260200191505060405180910390f35b6101af6004803603604081101561018f57600080fd5b81019080803590602001909291908035906020019092919050505061044e565b6040518084151515158152602001838152602001828152602001935050505060405180910390f35b6101df6107a5565b604051808273ffffffffffffffffffffffffffffffffffffffff1673ffffffffffffffffffffffffffffffffffffffff16815260200191505060405180910390f35b6102296107ca565b604051808381526020018281526020019250505060405180910390f35b6102886004803603602081101561025c57600080fd5b81019080803573ffffffffffffffffffffffffffffffffffffffff16906020019092919050505061084c565b005b6102b6600480360360208110156102a057600080fd5b81019080803590602001909291905050506109f8565b60405180848152602001838152602001828152602001935050505060405180910390f35b60008060006102e9844261044e565b9250925092509193909250565b60008060008060008061030f600554610e10420361044e565b809550819450829650505050836103345761032b6005546102da565b90915050809250505b61034560055462015180420361044e565b8095508193508296505050508361036a576103616005546102da565b90915050809150505b808295509550505050509091565b600160009054906101000a900473ffffffffffffffffffffffffffffffffffffffff1681565b6000806000806000806103b7600454610e10420361044e565b809350819750829450505050816103dc576103d36004546102da565b90915050809550505b6103ec600554610e10420361044e565b80935081965082945050505081610411576104086005546102da565b90915050809450505b61042c670de0b6b3a764000086610ddd90919063ffffffff16565b94506104418486610e0c90919063ffffffff16565b9250829550505050505090565b600080600080600260009054906101000a900473ffffffffffffffffffffffffffffffffffffffff1673ffffffffffffffffffffffffffffffffffffffff166346eee1c4876040518263ffffffff1660e01b81526004018082815260200191505060206040518083038186803b1580156104c757600080fd5b505afa1580156104db573d6000803e3d6000fd5b505050506040513d60208110156104f157600080fd5b81019080805190602001909291905050509050600081111561078b5760008190505b6000811115610789576000600260009054906101000a900473ffffffffffffffffffffffffffffffffffffffff1673ffffffffffffffffffffffffffffffffffffffff166377fbb66389600185036040518363ffffffff1660e01b8152600401808381526020018281526020019250505060206040518083038186803b15801561059c57600080fd5b505afa1580156105b0573d6000803e3d6000fd5b505050506040513d60208110156105c657600080fd5b810190808051906020019092919050505090506000811180156105e95750868111155b80156106ae575060001515600260009054906101000a900473ffffffffffffffffffffffffffffffffffffffff1673ffffffffffffffffffffffffffffffffffffffff16633df0777b8a846040518363ffffffff1660e01b8152600401808381526020018281526020019250505060206040518083038186803b15801561066f57600080fd5b505afa158015610683573d6000803e3d6000fd5b505050506040513d602081101561069957600080fd5b81019080805190602001909291905050501515145b1561077a576001600260009054906101000a900473ffffffffffffffffffffffffffffffffffffffff1673ffffffffffffffffffffffffffffffffffffffff166393fa49158a846040518363ffffffff1660e01b8152600401808381526020018281526020019250505060206040518083038186803b15801561073057600080fd5b505afa158015610744573d6000803e3d6000fd5b505050506040513d602081101561075a57600080fd5b81019080805190602001909291905050508295509550955050505061079e565b50808060019003915050610513565b505b6000806000819150809050935093509350505b9250925092565b6000809054906101000a900473ffffffffffffffffffffffffffffffffffffffff1681565b6000806000806000806107e3600454610e10420361044e565b80955081945082965050505083610808576107ff6004546102da565b90915050809250505b61081960045462015180420361044e565b8095508193508296505050508361083e576108356004546102da565b90915050809150505b808295509550505050509091565b600073ffffffffffffffffffffffffffffffffffffffff16600160009054906101000a900473ffffffffffffffffffffffffffffffffffffffff1673ffffffffffffffffffffffffffffffffffffffff1614610910576040517f08c379a000000000000000000000000000000000000000000000000000000000815260040180806020018281038252600b8152602001807f416c72656164792053657400000000000000000000000000000000000000000081525060200191505060405180910390fd5b80600160006101000a81548173ffffffffffffffffffffffffffffffffffffffff021916908373ffffffffffffffffffffffffffffffffffffffff16021790555080600360006101000a81548173ffffffffffffffffffffffffffffffffffffffff021916908373ffffffffffffffffffffffffffffffffffffffff1602179055507f5c6c85f31e475f047482022539bfe2a3941c15e582053b7420f22e5e8cc5d7f681604051808273ffffffffffffffffffffffffffffffffffffffff1673ffffffffffffffffffffffffffffffffffffffff16815260200191505060405180910390a150565b600080600080600360009054906101000a900473ffffffffffffffffffffffffffffffffffffffff1673ffffffffffffffffffffffffffffffffffffffff1663c4e9e950866040518263ffffffff1660e01b81526004018082815260200191505060206040518083038186803b158015610a7157600080fd5b505afa158015610a85573d6000803e3d6000fd5b505050506040513d6020811015610a9b57600080fd5b810190808051906020019092919050505090506000600360009054906101000a900473ffffffffffffffffffffffffffffffffffffffff1673ffffffffffffffffffffffffffffffffffffffff166373b33318876040518263ffffffff1660e01b81526004018082815260200191505060206040518083038186803b158015610b2357600080fd5b505afa158015610b37573d6000803e3d6000fd5b505050506040513d6020811015610b4d57600080fd5b810190808051906020019092919050505090506000821115610d15576000806000610b78854261044e565b8093508194508295505050508215610c4d5783820281600360009054906101000a900473ffffffffffffffffffffffffffffffffffffffff1673ffffffffffffffffffffffffffffffffffffffff166367cfa3f860016040518263ffffffff1660e01b81526004018082815260200191505060206040518083038186803b158015610c0257600080fd5b505afa158015610c16573d6000803e3d6000fd5b505050506040513d6020811015610c2c57600080fd5b81019080805190602001909291905050509750975097505050505050610dd6565b600080600360009054906101000a900473ffffffffffffffffffffffffffffffffffffffff1673ffffffffffffffffffffffffffffffffffffffff166367cfa3f860026040518263ffffffff1660e01b81526004018082815260200191505060206040518083038186803b158015610cc457600080fd5b505afa158015610cd8573d6000803e3d6000fd5b505050506040513d6020811015610cee57600080fd5b81019080805190602001909291905050508292508191509750975097505050505050610dd6565b600080600360009054906101000a900473ffffffffffffffffffffffffffffffffffffffff1673ffffffffffffffffffffffffffffffffffffffff166367cfa3f860006040518263ffffffff1660e01b81526004018082815260200191505060206040518083038186803b158015610d8c57600080fd5b505afa158015610da0573d6000803e3d6000fd5b505050506040513d6020811015610db657600080fd5b810190808051906020019092919050505082925081915094509450945050505b9193909250565b60008082840290506000841480610dfc575082848281610df957fe5b04145b610e0257fe5b8091505092915050565b600080828481610e1857fe5b049050809150509291505056fea265627a7a72315820dd8400c00c27b5c0b0f12332cc07b4a918dc7e50417e3a8ec043b6183594305064736f6c63430005100032",
  "source": "//SPDX-License-Identifier: MIT\r\npragma solidity >=0.4.22 <0.7.0;\r\n\r\nimport \"usingtellor/contracts/UsingTellor.sol\";\r\n\r\ncontract UsingPriceFeed is UsingTellor {\r\n\r\n    using SafeMath for uint;\r\n\r\n    uint256 requestIdEth;\r\n    uint256 requestIdDai;\r\n\r\n    constructor(address payable _tellorAddress) public UsingTellor(_tellorAddress){\r\n        requestIdEth = 1; //ETH/USD\r\n        requestIdDai = 39; //DAI/USD\r\n    }\r\n\r\n    /*\r\n    *@notice returns the current market value of ETH/DAI after adjusting the granularity\r\n    */\r\n    function getMarketValue() public view returns (uint256) {\r\n        uint _eth;\r\n        uint _dai;\r\n        uint _adjustedPrice;\r\n\r\n        bool _didGet;\r\n        uint _timeStamp;\r\n\r\n        //ETH/USD\r\n        (_didGet, _eth, _timeStamp) = getDataBefore(requestIdEth, now - 1 hours);\r\n        if(!_didGet){\r\n            (, _eth, ) = getCurrentValue(requestIdEth);\r\n        }\r\n\r\n        //DAI/USD\r\n        (_didGet, _dai, _timeStamp) = getDataBefore(requestIdDai, now - 1 hours);\r\n        if(!_didGet){\r\n            (, _dai, ) = getCurrentValue(requestIdDai);\r\n        }\r\n\r\n        //Granularity adjustment\r\n        _eth = _eth.mul(10**18);\r\n        _adjustedPrice = _eth.div(_dai);\r\n\r\n        return _adjustedPrice;\r\n    }\r\n\r\n    /*\r\n    *@notice returns ETH/USD market value in last 24 hours  \r\n    */\r\n    function getEthRange() external view returns(uint, uint){\r\n        bool _didGet;\r\n        uint _timeStamp;\r\n        uint _ethNow;\r\n        uint _ethPast;\r\n\r\n        (_didGet, _ethNow, _timeStamp) = getDataBefore(requestIdEth, now - 1 hours);\r\n        if(!_didGet){\r\n            (, _ethNow, ) = getCurrentValue(requestIdEth);\r\n        }\r\n\r\n        (_didGet, _ethPast, _timeStamp) = getDataBefore(requestIdEth, now - 24 hours);\r\n        if(!_didGet){\r\n            (, _ethPast, ) = getCurrentValue(requestIdEth);\r\n        } \r\n\r\n        return (_ethPast, _ethNow);\r\n    }\r\n\r\n    /*\r\n    *@notice returns DAI/USD market value in last 24 hours  \r\n    */\r\n    function getDaiRange() external view returns(uint, uint){\r\n        bool _didGet;\r\n        uint _timeStamp;\r\n        uint _daiNow;\r\n        uint _daiPast;\r\n\r\n        (_didGet, _daiNow, _timeStamp) = getDataBefore(requestIdDai, now - 1 hours);\r\n        if(!_didGet){\r\n            (, _daiNow, ) = getCurrentValue(requestIdDai);\r\n        }\r\n\r\n        (_didGet, _daiPast, _timeStamp) = getDataBefore(requestIdDai, now - 24 hours);\r\n        if(!_didGet){\r\n            (, _daiPast, ) = getCurrentValue(requestIdDai);\r\n        }\r\n\r\n        return (_daiPast, _daiNow);\r\n    }\r\n\r\n    \r\n}\r\n",
  "sourcePath": "C:\\Users\\AnshuJalan\\Documents\\Chainrunner\\newton\\contracts\\priceContract\\UsingPriceFeed.sol",
  "compiler": {
    "name": "solc",
    "version": "0.5.16+commit.9c3226ce.Emscripten.clang"
  },
  "schemaVersion": "3.2.0",
  "updatedAt": "2020-06-28T10:05:24.950Z",
  "networkType": "ethereum",
  "devdoc": {
    "methods": {
      "getCurrentValue(uint256)": {
        "details": "Allows the user to get the latest value for the requestId specified",
        "params": {
          "_requestId": "is the requestId to look up the value for"
        },
        "return": "bool true if it is able to retreive a value, the value, and the value's timestamp"
      },
      "getDataBefore(uint256,uint256)": {
        "details": "Allows the user to get the first value for the requestId after the specified timestamp",
        "params": {
          "_requestId": "is the requestId to look up the value for",
          "_timestamp": "after which to search for first verified value"
        },
        "return": "bool true if it is able to retreive a value, the value, and the value's timestamp"
      },
      "valueFor(bytes32)": {
        "details": "Allows the user to get the latest value for the requestId specified using the  ADO specification for the standard inteface for price oracles",
        "params": {
          "_bytesId": "is the ADO standarized bytes32 price/key value pair identifier"
        },
        "return": "the timestamp, outcome or value/ and the status code (for retreived, null, etc...)"
      }
    }
  },
  "userdoc": {
    "methods": {}
  }
}